{
  "_format": "hh-sol-artifact-1",
  "contractName": "AvatarArena",
  "sourceName": "contracts/AvatarArena.sol",
  "abi": [
    {
      "inputs": [],
      "stateMutability": "nonpayable",
      "type": "constructor"
    },
    {
      "anonymous": false,
      "inputs": [
        {
          "indexed": true,
          "internalType": "address",
          "name": "owner",
          "type": "address"
        },
        {
          "indexed": true,
          "internalType": "address",
          "name": "approved",
          "type": "address"
        },
        {
          "indexed": true,
          "internalType": "uint256",
          "name": "tokenId",
          "type": "uint256"
        }
      ],
      "name": "Approval",
      "type": "event"
    },
    {
      "anonymous": false,
      "inputs": [
        {
          "indexed": true,
          "internalType": "address",
          "name": "owner",
          "type": "address"
        },
        {
          "indexed": true,
          "internalType": "address",
          "name": "operator",
          "type": "address"
        },
        {
          "indexed": false,
          "internalType": "bool",
          "name": "approved",
          "type": "bool"
        }
      ],
      "name": "ApprovalForAll",
      "type": "event"
    },
    {
      "anonymous": false,
      "inputs": [
        {
          "indexed": false,
          "internalType": "uint256",
          "name": "battleIndex",
          "type": "uint256"
        }
      ],
      "name": "BattleComplete",
      "type": "event"
    },
    {
      "anonymous": false,
      "inputs": [
        {
          "indexed": true,
          "internalType": "address",
          "name": "previousOwner",
          "type": "address"
        },
        {
          "indexed": true,
          "internalType": "address",
          "name": "newOwner",
          "type": "address"
        }
      ],
      "name": "OwnershipTransferred",
      "type": "event"
    },
    {
      "anonymous": false,
      "inputs": [
        {
          "indexed": true,
          "internalType": "address",
          "name": "from",
          "type": "address"
        },
        {
          "indexed": true,
          "internalType": "address",
          "name": "to",
          "type": "address"
        },
        {
          "indexed": true,
          "internalType": "uint256",
          "name": "tokenId",
          "type": "uint256"
        }
      ],
      "name": "Transfer",
      "type": "event"
    },
    {
      "inputs": [
        {
          "internalType": "address",
          "name": "to",
          "type": "address"
        },
        {
          "internalType": "uint256",
          "name": "tokenId",
          "type": "uint256"
        }
      ],
      "name": "approve",
      "outputs": [],
      "stateMutability": "nonpayable",
      "type": "function"
    },
    {
      "inputs": [
        {
          "internalType": "address",
          "name": "owner",
          "type": "address"
        }
      ],
      "name": "balanceOf",
      "outputs": [
        {
          "internalType": "uint256",
          "name": "",
          "type": "uint256"
        }
      ],
      "stateMutability": "view",
      "type": "function"
    },
    {
      "inputs": [
        {
          "internalType": "uint256",
          "name": "tokenId",
          "type": "uint256"
        }
      ],
      "name": "burn",
      "outputs": [],
      "stateMutability": "nonpayable",
      "type": "function"
    },
    {
      "inputs": [
        {
          "internalType": "uint256",
          "name": "tokenId",
          "type": "uint256"
        }
      ],
      "name": "getApproved",
      "outputs": [
        {
          "internalType": "address",
          "name": "",
          "type": "address"
        }
      ],
      "stateMutability": "view",
      "type": "function"
    },
    {
      "inputs": [
        {
          "internalType": "uint256",
          "name": "tokenId",
          "type": "uint256"
        }
      ],
      "name": "getAvatarWins",
      "outputs": [
        {
          "internalType": "uint256",
          "name": "",
          "type": "uint256"
        }
      ],
      "stateMutability": "view",
      "type": "function"
    },
    {
      "inputs": [],
      "name": "getBattle",
      "outputs": [
        {
          "components": [
            {
              "components": [
                {
                  "internalType": "address",
                  "name": "player",
                  "type": "address"
                },
                {
                  "internalType": "uint256",
                  "name": "nft",
                  "type": "uint256"
                }
              ],
              "internalType": "struct Arena.Player[]",
              "name": "players",
              "type": "tuple[]"
            },
            {
              "internalType": "uint256",
              "name": "createdAt",
              "type": "uint256"
            },
            {
              "internalType": "int256",
              "name": "winner",
              "type": "int256"
            }
          ],
          "internalType": "struct Arena.Battle",
          "name": "",
          "type": "tuple"
        }
      ],
      "stateMutability": "view",
      "type": "function"
    },
    {
      "inputs": [
        {
          "internalType": "address",
          "name": "owner",
          "type": "address"
        },
        {
          "internalType": "address",
          "name": "operator",
          "type": "address"
        }
      ],
      "name": "isApprovedForAll",
      "outputs": [
        {
          "internalType": "bool",
          "name": "",
          "type": "bool"
        }
      ],
      "stateMutability": "view",
      "type": "function"
    },
    {
      "inputs": [],
      "name": "name",
      "outputs": [
        {
          "internalType": "string",
          "name": "",
          "type": "string"
        }
      ],
      "stateMutability": "view",
      "type": "function"
    },
    {
      "inputs": [],
      "name": "owner",
      "outputs": [
        {
          "internalType": "address",
          "name": "",
          "type": "address"
        }
      ],
      "stateMutability": "view",
      "type": "function"
    },
    {
      "inputs": [
        {
          "internalType": "uint256",
          "name": "tokenId",
          "type": "uint256"
        }
      ],
      "name": "ownerOf",
      "outputs": [
        {
          "internalType": "address",
          "name": "",
          "type": "address"
        }
      ],
      "stateMutability": "view",
      "type": "function"
    },
    {
      "inputs": [],
      "name": "renounceOwnership",
      "outputs": [],
      "stateMutability": "nonpayable",
      "type": "function"
    },
    {
      "inputs": [
        {
          "internalType": "address",
          "name": "to",
          "type": "address"
        },
        {
          "internalType": "string",
          "name": "uri",
          "type": "string"
        }
      ],
      "name": "safeMint",
      "outputs": [],
      "stateMutability": "nonpayable",
      "type": "function"
    },
    {
      "inputs": [
        {
          "internalType": "address",
          "name": "from",
          "type": "address"
        },
        {
          "internalType": "address",
          "name": "to",
          "type": "address"
        },
        {
          "internalType": "uint256",
          "name": "tokenId",
          "type": "uint256"
        }
      ],
      "name": "safeTransferFrom",
      "outputs": [],
      "stateMutability": "nonpayable",
      "type": "function"
    },
    {
      "inputs": [
        {
          "internalType": "address",
          "name": "from",
          "type": "address"
        },
        {
          "internalType": "address",
          "name": "to",
          "type": "address"
        },
        {
          "internalType": "uint256",
          "name": "tokenId",
          "type": "uint256"
        },
        {
          "internalType": "bytes",
          "name": "_data",
          "type": "bytes"
        }
      ],
      "name": "safeTransferFrom",
      "outputs": [],
      "stateMutability": "nonpayable",
      "type": "function"
    },
    {
      "inputs": [
        {
          "internalType": "address",
          "name": "operator",
          "type": "address"
        },
        {
          "internalType": "bool",
          "name": "approved",
          "type": "bool"
        }
      ],
      "name": "setApprovalForAll",
      "outputs": [],
      "stateMutability": "nonpayable",
      "type": "function"
    },
    {
      "inputs": [
        {
          "internalType": "uint256",
          "name": "tokenId",
          "type": "uint256"
        }
      ],
      "name": "startBattle",
      "outputs": [],
      "stateMutability": "nonpayable",
      "type": "function"
    },
    {
      "inputs": [
        {
          "internalType": "bytes4",
          "name": "interfaceId",
          "type": "bytes4"
        }
      ],
      "name": "supportsInterface",
      "outputs": [
        {
          "internalType": "bool",
          "name": "",
          "type": "bool"
        }
      ],
      "stateMutability": "view",
      "type": "function"
    },
    {
      "inputs": [],
      "name": "symbol",
      "outputs": [
        {
          "internalType": "string",
          "name": "",
          "type": "string"
        }
      ],
      "stateMutability": "view",
      "type": "function"
    },
    {
      "inputs": [
        {
          "internalType": "uint256",
          "name": "index",
          "type": "uint256"
        }
      ],
      "name": "tokenByIndex",
      "outputs": [
        {
          "internalType": "uint256",
          "name": "",
          "type": "uint256"
        }
      ],
      "stateMutability": "view",
      "type": "function"
    },
    {
      "inputs": [
        {
          "internalType": "address",
          "name": "owner",
          "type": "address"
        },
        {
          "internalType": "uint256",
          "name": "index",
          "type": "uint256"
        }
      ],
      "name": "tokenOfOwnerByIndex",
      "outputs": [
        {
          "internalType": "uint256",
          "name": "",
          "type": "uint256"
        }
      ],
      "stateMutability": "view",
      "type": "function"
    },
    {
      "inputs": [
        {
          "internalType": "uint256",
          "name": "tokenId",
          "type": "uint256"
        }
      ],
      "name": "tokenURI",
      "outputs": [
        {
          "internalType": "string",
          "name": "",
          "type": "string"
        }
      ],
      "stateMutability": "view",
      "type": "function"
    },
    {
      "inputs": [],
      "name": "totalSupply",
      "outputs": [
        {
          "internalType": "uint256",
          "name": "",
          "type": "uint256"
        }
      ],
      "stateMutability": "view",
      "type": "function"
    },
    {
      "inputs": [
        {
          "internalType": "address",
          "name": "from",
          "type": "address"
        },
        {
          "internalType": "address",
          "name": "to",
          "type": "address"
        },
        {
          "internalType": "uint256",
          "name": "tokenId",
          "type": "uint256"
        }
      ],
      "name": "transferFrom",
      "outputs": [],
      "stateMutability": "nonpayable",
      "type": "function"
    },
    {
      "inputs": [
        {
          "internalType": "address",
          "name": "newOwner",
          "type": "address"
        }
      ],
      "name": "transferOwnership",
      "outputs": [],
      "stateMutability": "nonpayable",
      "type": "function"
    }
  ],
  "bytecode": "0x60806040523480156200001157600080fd5b506040518060400160405280600b81526020017f4176617461724172656e610000000000000000000000000000000000000000008152506040518060400160405280600481526020017f4156415200000000000000000000000000000000000000000000000000000000815250816000908051906020019062000096929190620001a6565b508060019080519060200190620000af929190620001a6565b505050620000d2620000c6620000d860201b60201c565b620000e060201b60201c565b620002bb565b600033905090565b6000600b60009054906101000a900473ffffffffffffffffffffffffffffffffffffffff16905081600b60006101000a81548173ffffffffffffffffffffffffffffffffffffffff021916908373ffffffffffffffffffffffffffffffffffffffff1602179055508173ffffffffffffffffffffffffffffffffffffffff168173ffffffffffffffffffffffffffffffffffffffff167f8be0079c531659141344cd1fd0a4f28419497f9722a3daafe3b4186f6b6457e060405160405180910390a35050565b828054620001b49062000256565b90600052602060002090601f016020900481019282620001d8576000855562000224565b82601f10620001f357805160ff191683800117855562000224565b8280016001018555821562000224579182015b828111156200022357825182559160200191906001019062000206565b5b50905062000233919062000237565b5090565b5b808211156200025257600081600090555060010162000238565b5090565b600060028204905060018216806200026f57607f821691505b602082108114156200028657620002856200028c565b5b50919050565b7f4e487b7100000000000000000000000000000000000000000000000000000000600052602260045260246000fd5b61452d80620002cb6000396000f3fe608060405234801561001057600080fd5b50600436106101585760003560e01c8063715018a6116100c3578063b88d4fde1161007c578063b88d4fde146103d7578063c87b56dd146103f3578063d204c45e14610423578063d7aacb3e1461043f578063e985e9c51461045d578063f2fde38b1461048d57610158565b8063715018a6146103295780638da5cb5b146103335780638e6807f81461035157806395d89b411461036d5780639ab055b31461038b578063a22cb465146103bb57610158565b80632f745c59116101155780632f745c591461023157806342842e0e1461026157806342966c681461027d5780634f6ccce7146102995780636352211e146102c957806370a08231146102f957610158565b806301ffc9a71461015d57806306fdde031461018d578063081812fc146101ab578063095ea7b3146101db57806318160ddd146101f757806323b872dd14610215575b600080fd5b61017760048036038101906101729190613078565b6104a9565b60405161018491906136cc565b60405180910390f35b6101956104bb565b6040516101a291906136e7565b60405180910390f35b6101c560048036038101906101c091906130ca565b61054d565b6040516101d29190613665565b60405180910390f35b6101f560048036038101906101f0919061303c565b6105d2565b005b6101ff6106ea565b60405161020c91906139eb565b60405180910390f35b61022f600480360381019061022a9190612ee2565b6106f7565b005b61024b6004803603810190610246919061303c565b610757565b60405161025891906139eb565b60405180910390f35b61027b60048036038101906102769190612ee2565b6107fc565b005b610297600480360381019061029291906130ca565b61081c565b005b6102b360048036038101906102ae91906130ca565b610878565b6040516102c091906139eb565b60405180910390f35b6102e360048036038101906102de91906130ca565b61090f565b6040516102f09190613665565b60405180910390f35b610313600480360381019061030e9190612e54565b6109c1565b60405161032091906139eb565b60405180910390f35b610331610a79565b005b61033b610b01565b6040516103489190613665565b60405180910390f35b61036b600480360381019061036691906130ca565b610b2b565b005b610375610efe565b60405161038291906136e7565b60405180910390f35b6103a560048036038101906103a091906130ca565b610f90565b6040516103b291906139eb565b60405180910390f35b6103d560048036038101906103d09190612fac565b610fad565b005b6103f160048036038101906103ec9190612f31565b610fc3565b005b61040d600480360381019061040891906130ca565b611025565b60405161041a91906136e7565b60405180910390f35b61043d60048036038101906104389190612fe8565b611037565b005b610447611068565b60405161045491906139c9565b60405180910390f35b61047760048036038101906104729190612ea6565b6111e0565b60405161048491906136cc565b60405180910390f35b6104a760048036038101906104a29190612e54565b611274565b005b60006104b48261136c565b9050919050565b6060600080546104ca90613c84565b80601f01602080910402602001604051908101604052809291908181526020018280546104f690613c84565b80156105435780601f1061051857610100808354040283529160200191610543565b820191906000526020600020905b81548152906001019060200180831161052657829003601f168201915b5050505050905090565b6000610558826113e6565b610597576040517f08c379a000000000000000000000000000000000000000000000000000000000815260040161058e906138c9565b60405180910390fd5b6004600083815260200190815260200160002060009054906101000a900473ffffffffffffffffffffffffffffffffffffffff169050919050565b60006105dd8261090f565b90508073ffffffffffffffffffffffffffffffffffffffff168373ffffffffffffffffffffffffffffffffffffffff16141561064e576040517f08c379a000000000000000000000000000000000000000000000000000000000815260040161064590613949565b60405180910390fd5b8073ffffffffffffffffffffffffffffffffffffffff1661066d611452565b73ffffffffffffffffffffffffffffffffffffffff16148061069c575061069b81610696611452565b6111e0565b5b6106db576040517f08c379a00000000000000000000000000000000000000000000000000000000081526004016106d290613809565b60405180910390fd5b6106e5838361145a565b505050565b6000600880549050905090565b610708610702611452565b82611513565b610747576040517f08c379a000000000000000000000000000000000000000000000000000000000815260040161073e90613969565b60405180910390fd5b6107528383836115f1565b505050565b6000610762836109c1565b82106107a3576040517f08c379a000000000000000000000000000000000000000000000000000000000815260040161079a90613709565b60405180910390fd5b600660008473ffffffffffffffffffffffffffffffffffffffff1673ffffffffffffffffffffffffffffffffffffffff168152602001908152602001600020600083815260200190815260200160002054905092915050565b61081783838360405180602001604052806000815250610fc3565b505050565b61082d610827611452565b82611513565b61086c576040517f08c379a0000000000000000000000000000000000000000000000000000000008152600401610863906139a9565b60405180910390fd5b61087581611858565b50565b60006108826106ea565b82106108c3576040517f08c379a00000000000000000000000000000000000000000000000000000000081526004016108ba90613989565b60405180910390fd5b600882815481106108fd577f4e487b7100000000000000000000000000000000000000000000000000000000600052603260045260246000fd5b90600052602060002001549050919050565b6000806002600084815260200190815260200160002060009054906101000a900473ffffffffffffffffffffffffffffffffffffffff169050600073ffffffffffffffffffffffffffffffffffffffff168173ffffffffffffffffffffffffffffffffffffffff1614156109b8576040517f08c379a00000000000000000000000000000000000000000000000000000000081526004016109af90613849565b60405180910390fd5b80915050919050565b60008073ffffffffffffffffffffffffffffffffffffffff168273ffffffffffffffffffffffffffffffffffffffff161415610a32576040517f08c379a0000000000000000000000000000000000000000000000000000000008152600401610a2990613829565b60405180910390fd5b600360008373ffffffffffffffffffffffffffffffffffffffff1673ffffffffffffffffffffffffffffffffffffffff168152602001908152602001600020549050919050565b610a81611452565b73ffffffffffffffffffffffffffffffffffffffff16610a9f610b01565b73ffffffffffffffffffffffffffffffffffffffff1614610af5576040517f08c379a0000000000000000000000000000000000000000000000000000000008152600401610aec906138e9565b60405180910390fd5b610aff6000611864565b565b6000600b60009054906101000a900473ffffffffffffffffffffffffffffffffffffffff16905090565b3373ffffffffffffffffffffffffffffffffffffffff163073ffffffffffffffffffffffffffffffffffffffff16636352211e836040518263ffffffff1660e01b8152600401610b7b91906139eb565b60206040518083038186803b158015610b9357600080fd5b505afa158015610ba7573d6000803e3d6000fd5b505050506040513d601f19601f82011682018060405250810190610bcb9190612e7d565b73ffffffffffffffffffffffffffffffffffffffff1614610c21576040517f08c379a0000000000000000000000000000000000000000000000000000000008152600401610c1890613929565b60405180910390fd5b6000600c805490501115610da35760006001600c80549050610c439190613b90565b90506000600c8281548110610c81577f4e487b7100000000000000000000000000000000000000000000000000000000600052603260045260246000fd5b90600052602060002090600302019050600181600001805490501415610da0578060000160405180604001604052803373ffffffffffffffffffffffffffffffffffffffff16815260200185815250908060018154018082558091505060019003906000526020600020906002020160009091909190915060008201518160000160006101000a81548173ffffffffffffffffffffffffffffffffffffffff021916908373ffffffffffffffffffffffffffffffffffffffff16021790555060208201518160010155505081600d60003373ffffffffffffffffffffffffffffffffffffffff1673ffffffffffffffffffffffffffffffffffffffff16815260200190815260200160002081905550610d998261192a565b5050610efb565b50505b6000600c60018160018154018082558091505003906000526020600020906003020190508060000160405180604001604052803373ffffffffffffffffffffffffffffffffffffffff16815260200184815250908060018154018082558091505060019003906000526020600020906002020160009091909190915060008201518160000160006101000a81548173ffffffffffffffffffffffffffffffffffffffff021916908373ffffffffffffffffffffffffffffffffffffffff1602179055506020820151816001015550504281600101819055507fffffffffffffffffffffffffffffffffffffffffffffffffffffffffffffffff81600201819055506001600c80549050610eb69190613b90565b600d60003373ffffffffffffffffffffffffffffffffffffffff1673ffffffffffffffffffffffffffffffffffffffff16815260200190815260200160002081905550505b50565b606060018054610f0d90613c84565b80601f0160208091040260200160405190810160405280929190818152602001828054610f3990613c84565b8015610f865780601f10610f5b57610100808354040283529160200191610f86565b820191906000526020600020905b815481529060010190602001808311610f6957829003601f168201915b5050505050905090565b6000600e6000838152602001908152602001600020549050919050565b610fbf610fb8611452565b8383611a75565b5050565b610fd4610fce611452565b83611513565b611013576040517f08c379a000000000000000000000000000000000000000000000000000000000815260040161100a90613969565b60405180910390fd5b61101f84848484611be2565b50505050565b606061103082611c3e565b9050919050565b6000611043600f611d90565b905061104f600f611d9e565b6110598382611db4565b6110638183611dd2565b505050565b611070612c02565b6000600d60003373ffffffffffffffffffffffffffffffffffffffff1673ffffffffffffffffffffffffffffffffffffffff168152602001908152602001600020549050600c81815481106110ee577f4e487b7100000000000000000000000000000000000000000000000000000000600052603260045260246000fd5b906000526020600020906003020160405180606001604052908160008201805480602002602001604051908101604052809291908181526020016000905b828210156111be57838290600052602060002090600202016040518060400160405290816000820160009054906101000a900473ffffffffffffffffffffffffffffffffffffffff1673ffffffffffffffffffffffffffffffffffffffff1673ffffffffffffffffffffffffffffffffffffffff1681526020016001820154815250508152602001906001019061112c565b5050505081526020016001820154815260200160028201548152505091505090565b6000600560008473ffffffffffffffffffffffffffffffffffffffff1673ffffffffffffffffffffffffffffffffffffffff16815260200190815260200160002060008373ffffffffffffffffffffffffffffffffffffffff1673ffffffffffffffffffffffffffffffffffffffff16815260200190815260200160002060009054906101000a900460ff16905092915050565b61127c611452565b73ffffffffffffffffffffffffffffffffffffffff1661129a610b01565b73ffffffffffffffffffffffffffffffffffffffff16146112f0576040517f08c379a00000000000000000000000000000000000000000000000000000000081526004016112e7906138e9565b60405180910390fd5b600073ffffffffffffffffffffffffffffffffffffffff168173ffffffffffffffffffffffffffffffffffffffff161415611360576040517f08c379a000000000000000000000000000000000000000000000000000000000815260040161135790613749565b60405180910390fd5b61136981611864565b50565b60007f780e9d63000000000000000000000000000000000000000000000000000000007bffffffffffffffffffffffffffffffffffffffffffffffffffffffff1916827bffffffffffffffffffffffffffffffffffffffffffffffffffffffff191614806113df57506113de82611e46565b5b9050919050565b60008073ffffffffffffffffffffffffffffffffffffffff166002600084815260200190815260200160002060009054906101000a900473ffffffffffffffffffffffffffffffffffffffff1673ffffffffffffffffffffffffffffffffffffffff1614159050919050565b600033905090565b816004600083815260200190815260200160002060006101000a81548173ffffffffffffffffffffffffffffffffffffffff021916908373ffffffffffffffffffffffffffffffffffffffff160217905550808273ffffffffffffffffffffffffffffffffffffffff166114cd8361090f565b73ffffffffffffffffffffffffffffffffffffffff167f8c5be1e5ebec7d5bd14f71427d1e84f3dd0314c0f7b2291e5b200ac8c7c3b92560405160405180910390a45050565b600061151e826113e6565b61155d576040517f08c379a0000000000000000000000000000000000000000000000000000000008152600401611554906137e9565b60405180910390fd5b60006115688361090f565b90508073ffffffffffffffffffffffffffffffffffffffff168473ffffffffffffffffffffffffffffffffffffffff1614806115d757508373ffffffffffffffffffffffffffffffffffffffff166115bf8461054d565b73ffffffffffffffffffffffffffffffffffffffff16145b806115e857506115e781856111e0565b5b91505092915050565b8273ffffffffffffffffffffffffffffffffffffffff166116118261090f565b73ffffffffffffffffffffffffffffffffffffffff1614611667576040517f08c379a000000000000000000000000000000000000000000000000000000000815260040161165e90613769565b60405180910390fd5b600073ffffffffffffffffffffffffffffffffffffffff168273ffffffffffffffffffffffffffffffffffffffff1614156116d7576040517f08c379a00000000000000000000000000000000000000000000000000000000081526004016116ce906137a9565b60405180910390fd5b6116e2838383611f28565b6116ed60008261145a565b6001600360008573ffffffffffffffffffffffffffffffffffffffff1673ffffffffffffffffffffffffffffffffffffffff168152602001908152602001600020600082825461173d9190613b90565b925050819055506001600360008473ffffffffffffffffffffffffffffffffffffffff1673ffffffffffffffffffffffffffffffffffffffff16815260200190815260200160002060008282546117949190613b09565b92505081905550816002600083815260200190815260200160002060006101000a81548173ffffffffffffffffffffffffffffffffffffffff021916908373ffffffffffffffffffffffffffffffffffffffff160217905550808273ffffffffffffffffffffffffffffffffffffffff168473ffffffffffffffffffffffffffffffffffffffff167fddf252ad1be2c89b69c2b068fc378daa952ba7f163c4a11628f55a4df523b3ef60405160405180910390a4611853838383611f38565b505050565b61186181611f3d565b50565b6000600b60009054906101000a900473ffffffffffffffffffffffffffffffffffffffff16905081600b60006101000a81548173ffffffffffffffffffffffffffffffffffffffff021916908373ffffffffffffffffffffffffffffffffffffffff1602179055508173ffffffffffffffffffffffffffffffffffffffff168173ffffffffffffffffffffffffffffffffffffffff167f8be0079c531659141344cd1fd0a4f28419497f9722a3daafe3b4186f6b6457e060405160405180910390a35050565b600060024233604051602001611941929190613639565b6040516020818303038152906040528051906020012060001c6119649190613d5e565b90506000600c83815481106119a2577f4e487b7100000000000000000000000000000000000000000000000000000000600052603260045260246000fd5b9060005260206000209060030201905081816002018190555060008160000183815481106119f9577f4e487b7100000000000000000000000000000000000000000000000000000000600052603260045260246000fd5b90600052602060002090600202016001015490506001600e60008381526020019081526020016000206000828254611a319190613b09565b925050819055507f59d70e1b512825833c0d38f2b7ce12846777b4d3a962bcf6255661166701e5b484604051611a6791906139eb565b60405180910390a150505050565b8173ffffffffffffffffffffffffffffffffffffffff168373ffffffffffffffffffffffffffffffffffffffff161415611ae4576040517f08c379a0000000000000000000000000000000000000000000000000000000008152600401611adb906137c9565b60405180910390fd5b80600560008573ffffffffffffffffffffffffffffffffffffffff1673ffffffffffffffffffffffffffffffffffffffff16815260200190815260200160002060008473ffffffffffffffffffffffffffffffffffffffff1673ffffffffffffffffffffffffffffffffffffffff16815260200190815260200160002060006101000a81548160ff0219169083151502179055508173ffffffffffffffffffffffffffffffffffffffff168373ffffffffffffffffffffffffffffffffffffffff167f17307eab39ab6107e8899845ad3d59bd9653f200f220920489ca2b5937696c3183604051611bd591906136cc565b60405180910390a3505050565b611bed8484846115f1565b611bf984848484611f90565b611c38576040517f08c379a0000000000000000000000000000000000000000000000000000000008152600401611c2f90613729565b60405180910390fd5b50505050565b6060611c49826113e6565b611c88576040517f08c379a0000000000000000000000000000000000000000000000000000000008152600401611c7f906138a9565b60405180910390fd5b6000600a60008481526020019081526020016000208054611ca890613c84565b80601f0160208091040260200160405190810160405280929190818152602001828054611cd490613c84565b8015611d215780601f10611cf657610100808354040283529160200191611d21565b820191906000526020600020905b815481529060010190602001808311611d0457829003601f168201915b505050505090506000611d32612127565b9050600081511415611d48578192505050611d8b565b600082511115611d7d578082604051602001611d65929190613615565b60405160208183030381529060405292505050611d8b565b611d868461213e565b925050505b919050565b600081600001549050919050565b6001816000016000828254019250508190555050565b611dce8282604051806020016040528060008152506121e5565b5050565b611ddb826113e6565b611e1a576040517f08c379a0000000000000000000000000000000000000000000000000000000008152600401611e1190613869565b60405180910390fd5b80600a60008481526020019081526020016000209080519060200190611e41929190612c23565b505050565b60007f80ac58cd000000000000000000000000000000000000000000000000000000007bffffffffffffffffffffffffffffffffffffffffffffffffffffffff1916827bffffffffffffffffffffffffffffffffffffffffffffffffffffffff19161480611f1157507f5b5e139f000000000000000000000000000000000000000000000000000000007bffffffffffffffffffffffffffffffffffffffffffffffffffffffff1916827bffffffffffffffffffffffffffffffffffffffffffffffffffffffff1916145b80611f215750611f2082612240565b5b9050919050565b611f338383836122aa565b505050565b505050565b611f46816123be565b6000600a60008381526020019081526020016000208054611f6690613c84565b905014611f8d57600a60008281526020019081526020016000206000611f8c9190612ca9565b5b50565b6000611fb18473ffffffffffffffffffffffffffffffffffffffff166124db565b1561211a578373ffffffffffffffffffffffffffffffffffffffff1663150b7a02611fda611452565b8786866040518563ffffffff1660e01b8152600401611ffc9493929190613680565b602060405180830381600087803b15801561201657600080fd5b505af192505050801561204757506040513d601f19601f8201168201806040525081019061204491906130a1565b60015b6120ca573d8060008114612077576040519150601f19603f3d011682016040523d82523d6000602084013e61207c565b606091505b506000815114156120c2576040517f08c379a00000000000000000000000000000000000000000000000000000000081526004016120b990613729565b60405180910390fd5b805181602001fd5b63150b7a0260e01b7bffffffffffffffffffffffffffffffffffffffffffffffffffffffff1916817bffffffffffffffffffffffffffffffffffffffffffffffffffffffff19161491505061211f565b600190505b949350505050565b606060405180602001604052806000815250905090565b6060612149826113e6565b612188576040517f08c379a000000000000000000000000000000000000000000000000000000000815260040161217f90613909565b60405180910390fd5b6000612192612127565b905060008151116121b257604051806020016040528060008152506121dd565b806121bc846124fe565b6040516020016121cd929190613615565b6040516020818303038152906040525b915050919050565b6121ef83836126ab565b6121fc6000848484611f90565b61223b576040517f08c379a000000000000000000000000000000000000000000000000000000000815260040161223290613729565b60405180910390fd5b505050565b60007f01ffc9a7000000000000000000000000000000000000000000000000000000007bffffffffffffffffffffffffffffffffffffffffffffffffffffffff1916827bffffffffffffffffffffffffffffffffffffffffffffffffffffffff1916149050919050565b6122b5838383612885565b600073ffffffffffffffffffffffffffffffffffffffff168373ffffffffffffffffffffffffffffffffffffffff1614156122f8576122f38161288a565b612337565b8173ffffffffffffffffffffffffffffffffffffffff168373ffffffffffffffffffffffffffffffffffffffff16146123365761233583826128d3565b5b5b600073ffffffffffffffffffffffffffffffffffffffff168273ffffffffffffffffffffffffffffffffffffffff16141561237a5761237581612a40565b6123b9565b8273ffffffffffffffffffffffffffffffffffffffff168273ffffffffffffffffffffffffffffffffffffffff16146123b8576123b78282612b83565b5b5b505050565b60006123c98261090f565b90506123d781600084611f28565b6123e260008361145a565b6001600360008373ffffffffffffffffffffffffffffffffffffffff1673ffffffffffffffffffffffffffffffffffffffff16815260200190815260200160002060008282546124329190613b90565b925050819055506002600083815260200190815260200160002060006101000a81549073ffffffffffffffffffffffffffffffffffffffff021916905581600073ffffffffffffffffffffffffffffffffffffffff168273ffffffffffffffffffffffffffffffffffffffff167fddf252ad1be2c89b69c2b068fc378daa952ba7f163c4a11628f55a4df523b3ef60405160405180910390a46124d781600084611f38565b5050565b6000808273ffffffffffffffffffffffffffffffffffffffff163b119050919050565b60606000821415612546576040518060400160405280600181526020017f300000000000000000000000000000000000000000000000000000000000000081525090506126a6565b600082905060005b6000821461257857808061256190613ce7565b915050600a826125719190613b5f565b915061254e565b60008167ffffffffffffffff8111156125ba577f4e487b7100000000000000000000000000000000000000000000000000000000600052604160045260246000fd5b6040519080825280601f01601f1916602001820160405280156125ec5781602001600182028036833780820191505090505b5090505b6000851461269f576001826126059190613b90565b9150600a856126149190613d5e565b60306126209190613b09565b60f81b81838151811061265c577f4e487b7100000000000000000000000000000000000000000000000000000000600052603260045260246000fd5b60200101907effffffffffffffffffffffffffffffffffffffffffffffffffffffffffffff1916908160001a905350600a856126989190613b5f565b94506125f0565b8093505050505b919050565b600073ffffffffffffffffffffffffffffffffffffffff168273ffffffffffffffffffffffffffffffffffffffff16141561271b576040517f08c379a000000000000000000000000000000000000000000000000000000000815260040161271290613889565b60405180910390fd5b612724816113e6565b15612764576040517f08c379a000000000000000000000000000000000000000000000000000000000815260040161275b90613789565b60405180910390fd5b61277060008383611f28565b6001600360008473ffffffffffffffffffffffffffffffffffffffff1673ffffffffffffffffffffffffffffffffffffffff16815260200190815260200160002060008282546127c09190613b09565b92505081905550816002600083815260200190815260200160002060006101000a81548173ffffffffffffffffffffffffffffffffffffffff021916908373ffffffffffffffffffffffffffffffffffffffff160217905550808273ffffffffffffffffffffffffffffffffffffffff16600073ffffffffffffffffffffffffffffffffffffffff167fddf252ad1be2c89b69c2b068fc378daa952ba7f163c4a11628f55a4df523b3ef60405160405180910390a461288160008383611f38565b5050565b505050565b6008805490506009600083815260200190815260200160002081905550600881908060018154018082558091505060019003906000526020600020016000909190919091505550565b600060016128e0846109c1565b6128ea9190613b90565b90506000600760008481526020019081526020016000205490508181146129cf576000600660008673ffffffffffffffffffffffffffffffffffffffff1673ffffffffffffffffffffffffffffffffffffffff168152602001908152602001600020600084815260200190815260200160002054905080600660008773ffffffffffffffffffffffffffffffffffffffff1673ffffffffffffffffffffffffffffffffffffffff168152602001908152602001600020600084815260200190815260200160002081905550816007600083815260200190815260200160002081905550505b6007600084815260200190815260200160002060009055600660008573ffffffffffffffffffffffffffffffffffffffff1673ffffffffffffffffffffffffffffffffffffffff16815260200190815260200160002060008381526020019081526020016000206000905550505050565b60006001600880549050612a549190613b90565b9050600060096000848152602001908152602001600020549050600060088381548110612aaa577f4e487b7100000000000000000000000000000000000000000000000000000000600052603260045260246000fd5b906000526020600020015490508060088381548110612af2577f4e487b7100000000000000000000000000000000000000000000000000000000600052603260045260246000fd5b906000526020600020018190555081600960008381526020019081526020016000208190555060096000858152602001908152602001600020600090556008805480612b67577f4e487b7100000000000000000000000000000000000000000000000000000000600052603160045260246000fd5b6001900381819060005260206000200160009055905550505050565b6000612b8e836109c1565b905081600660008573ffffffffffffffffffffffffffffffffffffffff1673ffffffffffffffffffffffffffffffffffffffff168152602001908152602001600020600083815260200190815260200160002081905550806007600084815260200190815260200160002081905550505050565b60405180606001604052806060815260200160008152602001600081525090565b828054612c2f90613c84565b90600052602060002090601f016020900481019282612c515760008555612c98565b82601f10612c6a57805160ff1916838001178555612c98565b82800160010185558215612c98579182015b82811115612c97578251825591602001919060010190612c7c565b5b509050612ca59190612ce9565b5090565b508054612cb590613c84565b6000825580601f10612cc75750612ce6565b601f016020900490600052602060002090810190612ce59190612ce9565b5b50565b5b80821115612d02576000816000905550600101612cea565b5090565b6000612d19612d1484613a2b565b613a06565b905082815260208101848484011115612d3157600080fd5b612d3c848285613c42565b509392505050565b6000612d57612d5284613a5c565b613a06565b905082815260208101848484011115612d6f57600080fd5b612d7a848285613c42565b509392505050565b600081359050612d918161449b565b92915050565b600081519050612da68161449b565b92915050565b600081359050612dbb816144b2565b92915050565b600081359050612dd0816144c9565b92915050565b600081519050612de5816144c9565b92915050565b600082601f830112612dfc57600080fd5b8135612e0c848260208601612d06565b91505092915050565b600082601f830112612e2657600080fd5b8135612e36848260208601612d44565b91505092915050565b600081359050612e4e816144e0565b92915050565b600060208284031215612e6657600080fd5b6000612e7484828501612d82565b91505092915050565b600060208284031215612e8f57600080fd5b6000612e9d84828501612d97565b91505092915050565b60008060408385031215612eb957600080fd5b6000612ec785828601612d82565b9250506020612ed885828601612d82565b9150509250929050565b600080600060608486031215612ef757600080fd5b6000612f0586828701612d82565b9350506020612f1686828701612d82565b9250506040612f2786828701612e3f565b9150509250925092565b60008060008060808587031215612f4757600080fd5b6000612f5587828801612d82565b9450506020612f6687828801612d82565b9350506040612f7787828801612e3f565b925050606085013567ffffffffffffffff811115612f9457600080fd5b612fa087828801612deb565b91505092959194509250565b60008060408385031215612fbf57600080fd5b6000612fcd85828601612d82565b9250506020612fde85828601612dac565b9150509250929050565b60008060408385031215612ffb57600080fd5b600061300985828601612d82565b925050602083013567ffffffffffffffff81111561302657600080fd5b61303285828601612e15565b9150509250929050565b6000806040838503121561304f57600080fd5b600061305d85828601612d82565b925050602061306e85828601612e3f565b9150509250929050565b60006020828403121561308a57600080fd5b600061309884828501612dc1565b91505092915050565b6000602082840312156130b357600080fd5b60006130c184828501612dd6565b91505092915050565b6000602082840312156130dc57600080fd5b60006130ea84828501612e3f565b91505092915050565b60006130ff83836135b1565b60408301905092915050565b61311481613bc4565b82525050565b61312381613bc4565b82525050565b61313a61313582613bc4565b613d30565b82525050565b600061314b82613a9d565b6131558185613acb565b935061316083613a8d565b8060005b8381101561319157815161317888826130f3565b975061318383613abe565b925050600181019050613164565b5085935050505092915050565b6131a781613bd6565b82525050565b60006131b882613aa8565b6131c28185613adc565b93506131d2818560208601613c51565b6131db81613e4b565b840191505092915050565b6131ef81613c0e565b82525050565b600061320082613ab3565b61320a8185613aed565b935061321a818560208601613c51565b61322381613e4b565b840191505092915050565b600061323982613ab3565b6132438185613afe565b9350613253818560208601613c51565b80840191505092915050565b600061326c602b83613aed565b915061327782613e69565b604082019050919050565b600061328f603283613aed565b915061329a82613eb8565b604082019050919050565b60006132b2602683613aed565b91506132bd82613f07565b604082019050919050565b60006132d5602583613aed565b91506132e082613f56565b604082019050919050565b60006132f8601c83613aed565b915061330382613fa5565b602082019050919050565b600061331b602483613aed565b915061332682613fce565b604082019050919050565b600061333e601983613aed565b91506133498261401d565b602082019050919050565b6000613361602c83613aed565b915061336c82614046565b604082019050919050565b6000613384603883613aed565b915061338f82614095565b604082019050919050565b60006133a7602a83613aed565b91506133b2826140e4565b604082019050919050565b60006133ca602983613aed565b91506133d582614133565b604082019050919050565b60006133ed602e83613aed565b91506133f882614182565b604082019050919050565b6000613410602083613aed565b915061341b826141d1565b602082019050919050565b6000613433603183613aed565b915061343e826141fa565b604082019050919050565b6000613456602c83613aed565b915061346182614249565b604082019050919050565b6000613479602083613aed565b915061348482614298565b602082019050919050565b600061349c602f83613aed565b91506134a7826142c1565b604082019050919050565b60006134bf602f83613aed565b91506134ca82614310565b604082019050919050565b60006134e2602183613aed565b91506134ed8261435f565b604082019050919050565b6000613505603183613aed565b9150613510826143ae565b604082019050919050565b6000613528602c83613aed565b9150613533826143fd565b604082019050919050565b600061354b603083613aed565b91506135568261444c565b604082019050919050565b6000606083016000830151848203600086015261357e8282613140565b915050602083015161359360208601826135e0565b5060408301516135a660408601826131e6565b508091505092915050565b6040820160008201516135c7600085018261310b565b5060208201516135da60208501826135e0565b50505050565b6135e981613c38565b82525050565b6135f881613c38565b82525050565b61360f61360a82613c38565b613d54565b82525050565b6000613621828561322e565b915061362d828461322e565b91508190509392505050565b600061364582856135fe565b6020820191506136558284613129565b6014820191508190509392505050565b600060208201905061367a600083018461311a565b92915050565b6000608082019050613695600083018761311a565b6136a2602083018661311a565b6136af60408301856135ef565b81810360608301526136c181846131ad565b905095945050505050565b60006020820190506136e1600083018461319e565b92915050565b6000602082019050818103600083015261370181846131f5565b905092915050565b600060208201905081810360008301526137228161325f565b9050919050565b6000602082019050818103600083015261374281613282565b9050919050565b60006020820190508181036000830152613762816132a5565b9050919050565b60006020820190508181036000830152613782816132c8565b9050919050565b600060208201905081810360008301526137a2816132eb565b9050919050565b600060208201905081810360008301526137c28161330e565b9050919050565b600060208201905081810360008301526137e281613331565b9050919050565b6000602082019050818103600083015261380281613354565b9050919050565b6000602082019050818103600083015261382281613377565b9050919050565b600060208201905081810360008301526138428161339a565b9050919050565b60006020820190508181036000830152613862816133bd565b9050919050565b60006020820190508181036000830152613882816133e0565b9050919050565b600060208201905081810360008301526138a281613403565b9050919050565b600060208201905081810360008301526138c281613426565b9050919050565b600060208201905081810360008301526138e281613449565b9050919050565b600060208201905081810360008301526139028161346c565b9050919050565b600060208201905081810360008301526139228161348f565b9050919050565b60006020820190508181036000830152613942816134b2565b9050919050565b60006020820190508181036000830152613962816134d5565b9050919050565b60006020820190508181036000830152613982816134f8565b9050919050565b600060208201905081810360008301526139a28161351b565b9050919050565b600060208201905081810360008301526139c28161353e565b9050919050565b600060208201905081810360008301526139e38184613561565b905092915050565b6000602082019050613a0060008301846135ef565b92915050565b6000613a10613a21565b9050613a1c8282613cb6565b919050565b6000604051905090565b600067ffffffffffffffff821115613a4657613a45613e1c565b5b613a4f82613e4b565b9050602081019050919050565b600067ffffffffffffffff821115613a7757613a76613e1c565b5b613a8082613e4b565b9050602081019050919050565b6000819050602082019050919050565b600081519050919050565b600081519050919050565b600081519050919050565b6000602082019050919050565b600082825260208201905092915050565b600082825260208201905092915050565b600082825260208201905092915050565b600081905092915050565b6000613b1482613c38565b9150613b1f83613c38565b9250827fffffffffffffffffffffffffffffffffffffffffffffffffffffffffffffffff03821115613b5457613b53613d8f565b5b828201905092915050565b6000613b6a82613c38565b9150613b7583613c38565b925082613b8557613b84613dbe565b5b828204905092915050565b6000613b9b82613c38565b9150613ba683613c38565b925082821015613bb957613bb8613d8f565b5b828203905092915050565b6000613bcf82613c18565b9050919050565b60008115159050919050565b60007fffffffff0000000000000000000000000000000000000000000000000000000082169050919050565b6000819050919050565b600073ffffffffffffffffffffffffffffffffffffffff82169050919050565b6000819050919050565b82818337600083830152505050565b60005b83811015613c6f578082015181840152602081019050613c54565b83811115613c7e576000848401525b50505050565b60006002820490506001821680613c9c57607f821691505b60208210811415613cb057613caf613ded565b5b50919050565b613cbf82613e4b565b810181811067ffffffffffffffff82111715613cde57613cdd613e1c565b5b80604052505050565b6000613cf282613c38565b91507fffffffffffffffffffffffffffffffffffffffffffffffffffffffffffffffff821415613d2557613d24613d8f565b5b600182019050919050565b6000613d3b82613d42565b9050919050565b6000613d4d82613e5c565b9050919050565b6000819050919050565b6000613d6982613c38565b9150613d7483613c38565b925082613d8457613d83613dbe565b5b828206905092915050565b7f4e487b7100000000000000000000000000000000000000000000000000000000600052601160045260246000fd5b7f4e487b7100000000000000000000000000000000000000000000000000000000600052601260045260246000fd5b7f4e487b7100000000000000000000000000000000000000000000000000000000600052602260045260246000fd5b7f4e487b7100000000000000000000000000000000000000000000000000000000600052604160045260246000fd5b6000601f19601f8301169050919050565b60008160601b9050919050565b7f455243373231456e756d657261626c653a206f776e657220696e646578206f7560008201527f74206f6620626f756e6473000000000000000000000000000000000000000000602082015250565b7f4552433732313a207472616e7366657220746f206e6f6e20455243373231526560008201527f63656976657220696d706c656d656e7465720000000000000000000000000000602082015250565b7f4f776e61626c653a206e6577206f776e657220697320746865207a65726f206160008201527f6464726573730000000000000000000000000000000000000000000000000000602082015250565b7f4552433732313a207472616e736665722066726f6d20696e636f72726563742060008201527f6f776e6572000000000000000000000000000000000000000000000000000000602082015250565b7f4552433732313a20746f6b656e20616c7265616479206d696e74656400000000600082015250565b7f4552433732313a207472616e7366657220746f20746865207a65726f2061646460008201527f7265737300000000000000000000000000000000000000000000000000000000602082015250565b7f4552433732313a20617070726f766520746f2063616c6c657200000000000000600082015250565b7f4552433732313a206f70657261746f7220717565727920666f72206e6f6e657860008201527f697374656e7420746f6b656e0000000000000000000000000000000000000000602082015250565b7f4552433732313a20617070726f76652063616c6c6572206973206e6f74206f7760008201527f6e6572206e6f7220617070726f76656420666f7220616c6c0000000000000000602082015250565b7f4552433732313a2062616c616e636520717565727920666f7220746865207a6560008201527f726f206164647265737300000000000000000000000000000000000000000000602082015250565b7f4552433732313a206f776e657220717565727920666f72206e6f6e657869737460008201527f656e7420746f6b656e0000000000000000000000000000000000000000000000602082015250565b7f45524337323155524953746f726167653a2055524920736574206f66206e6f6e60008201527f6578697374656e7420746f6b656e000000000000000000000000000000000000602082015250565b7f4552433732313a206d696e7420746f20746865207a65726f2061646472657373600082015250565b7f45524337323155524953746f726167653a2055524920717565727920666f722060008201527f6e6f6e6578697374656e7420746f6b656e000000000000000000000000000000602082015250565b7f4552433732313a20617070726f76656420717565727920666f72206e6f6e657860008201527f697374656e7420746f6b656e0000000000000000000000000000000000000000602082015250565b7f4f776e61626c653a2063616c6c6572206973206e6f7420746865206f776e6572600082015250565b7f4552433732314d657461646174613a2055524920717565727920666f72206e6f60008201527f6e6578697374656e7420746f6b656e0000000000000000000000000000000000602082015250565b7f4172656e613a2043616e6e6f7420737461727420626174746c6520776974682060008201527f6e6f6e2d6f776e656420746f6b656e0000000000000000000000000000000000602082015250565b7f4552433732313a20617070726f76616c20746f2063757272656e74206f776e6560008201527f7200000000000000000000000000000000000000000000000000000000000000602082015250565b7f4552433732313a207472616e736665722063616c6c6572206973206e6f74206f60008201527f776e6572206e6f7220617070726f766564000000000000000000000000000000602082015250565b7f455243373231456e756d657261626c653a20676c6f62616c20696e646578206f60008201527f7574206f6620626f756e64730000000000000000000000000000000000000000602082015250565b7f4552433732314275726e61626c653a2063616c6c6572206973206e6f74206f7760008201527f6e6572206e6f7220617070726f76656400000000000000000000000000000000602082015250565b6144a481613bc4565b81146144af57600080fd5b50565b6144bb81613bd6565b81146144c657600080fd5b50565b6144d281613be2565b81146144dd57600080fd5b50565b6144e981613c38565b81146144f457600080fd5b5056fea26469706673582212204baaf03f3de9af5122e5fddd8e67991b6fdd4234bd12436940c0d25eae3d218464736f6c63430008040033",
  "linkReferences": {},
  "deployedLinkReferences": {}
}