{
  "_format": "hh-sol-artifact-1",
  "contractName": "AvatarArena",
  "sourceName": "contracts/AvatarArena.sol",
  "abi": [
    {
      "inputs": [],
      "stateMutability": "nonpayable",
      "type": "constructor"
    },
    {
      "anonymous": false,
      "inputs": [
        {
          "indexed": true,
          "internalType": "address",
          "name": "owner",
          "type": "address"
        },
        {
          "indexed": true,
          "internalType": "address",
          "name": "approved",
          "type": "address"
        },
        {
          "indexed": true,
          "internalType": "uint256",
          "name": "tokenId",
          "type": "uint256"
        }
      ],
      "name": "Approval",
      "type": "event"
    },
    {
      "anonymous": false,
      "inputs": [
        {
          "indexed": true,
          "internalType": "address",
          "name": "owner",
          "type": "address"
        },
        {
          "indexed": true,
          "internalType": "address",
          "name": "operator",
          "type": "address"
        },
        {
          "indexed": false,
          "internalType": "bool",
          "name": "approved",
          "type": "bool"
        }
      ],
      "name": "ApprovalForAll",
      "type": "event"
    },
    {
      "anonymous": false,
      "inputs": [
        {
          "indexed": false,
          "internalType": "uint256",
          "name": "battleIndex",
          "type": "uint256"
        }
      ],
      "name": "BattleComplete",
      "type": "event"
    },
    {
      "anonymous": false,
      "inputs": [
        {
          "indexed": true,
          "internalType": "address",
          "name": "previousOwner",
          "type": "address"
        },
        {
          "indexed": true,
          "internalType": "address",
          "name": "newOwner",
          "type": "address"
        }
      ],
      "name": "OwnershipTransferred",
      "type": "event"
    },
    {
      "anonymous": false,
      "inputs": [
        {
          "indexed": true,
          "internalType": "address",
          "name": "from",
          "type": "address"
        },
        {
          "indexed": true,
          "internalType": "address",
          "name": "to",
          "type": "address"
        },
        {
          "indexed": true,
          "internalType": "uint256",
          "name": "tokenId",
          "type": "uint256"
        }
      ],
      "name": "Transfer",
      "type": "event"
    },
    {
      "inputs": [
        {
          "internalType": "address",
          "name": "to",
          "type": "address"
        },
        {
          "internalType": "uint256",
          "name": "tokenId",
          "type": "uint256"
        }
      ],
      "name": "approve",
      "outputs": [],
      "stateMutability": "nonpayable",
      "type": "function"
    },
    {
      "inputs": [
        {
          "internalType": "address",
          "name": "owner",
          "type": "address"
        }
      ],
      "name": "balanceOf",
      "outputs": [
        {
          "internalType": "uint256",
          "name": "",
          "type": "uint256"
        }
      ],
      "stateMutability": "view",
      "type": "function"
    },
    {
      "inputs": [
        {
          "internalType": "uint256",
          "name": "tokenId",
          "type": "uint256"
        }
      ],
      "name": "burn",
      "outputs": [],
      "stateMutability": "nonpayable",
      "type": "function"
    },
    {
      "inputs": [
        {
          "internalType": "uint256",
          "name": "tokenId",
          "type": "uint256"
        }
      ],
      "name": "getApproved",
      "outputs": [
        {
          "internalType": "address",
          "name": "",
          "type": "address"
        }
      ],
      "stateMutability": "view",
      "type": "function"
    },
    {
      "inputs": [
        {
          "internalType": "uint256",
          "name": "tokenId",
          "type": "uint256"
        }
      ],
      "name": "getAvatarWins",
      "outputs": [
        {
          "internalType": "uint256",
          "name": "",
          "type": "uint256"
        }
      ],
      "stateMutability": "view",
      "type": "function"
    },
    {
      "inputs": [],
      "name": "getBattle",
      "outputs": [
        {
          "components": [
            {
              "components": [
                {
                  "internalType": "address",
                  "name": "player",
                  "type": "address"
                },
                {
                  "internalType": "uint256",
                  "name": "nft",
                  "type": "uint256"
                }
              ],
              "internalType": "struct Arena.Player[]",
              "name": "players",
              "type": "tuple[]"
            },
            {
              "internalType": "uint256",
              "name": "createdAt",
              "type": "uint256"
            },
            {
              "internalType": "int256",
              "name": "winner",
              "type": "int256"
            }
          ],
          "internalType": "struct Arena.Battle",
          "name": "",
          "type": "tuple"
        }
      ],
      "stateMutability": "view",
      "type": "function"
    },
    {
      "inputs": [
        {
          "internalType": "address",
          "name": "owner",
          "type": "address"
        },
        {
          "internalType": "address",
          "name": "operator",
          "type": "address"
        }
      ],
      "name": "isApprovedForAll",
      "outputs": [
        {
          "internalType": "bool",
          "name": "",
          "type": "bool"
        }
      ],
      "stateMutability": "view",
      "type": "function"
    },
    {
      "inputs": [],
      "name": "name",
      "outputs": [
        {
          "internalType": "string",
          "name": "",
          "type": "string"
        }
      ],
      "stateMutability": "view",
      "type": "function"
    },
    {
      "inputs": [],
      "name": "owner",
      "outputs": [
        {
          "internalType": "address",
          "name": "",
          "type": "address"
        }
      ],
      "stateMutability": "view",
      "type": "function"
    },
    {
      "inputs": [
        {
          "internalType": "uint256",
          "name": "tokenId",
          "type": "uint256"
        }
      ],
      "name": "ownerOf",
      "outputs": [
        {
          "internalType": "address",
          "name": "",
          "type": "address"
        }
      ],
      "stateMutability": "view",
      "type": "function"
    },
    {
      "inputs": [],
      "name": "renounceOwnership",
      "outputs": [],
      "stateMutability": "nonpayable",
      "type": "function"
    },
    {
      "inputs": [
        {
          "internalType": "address",
          "name": "to",
          "type": "address"
        },
        {
          "internalType": "string",
          "name": "uri",
          "type": "string"
        }
      ],
      "name": "safeMint",
      "outputs": [],
      "stateMutability": "nonpayable",
      "type": "function"
    },
    {
      "inputs": [
        {
          "internalType": "address",
          "name": "from",
          "type": "address"
        },
        {
          "internalType": "address",
          "name": "to",
          "type": "address"
        },
        {
          "internalType": "uint256",
          "name": "tokenId",
          "type": "uint256"
        }
      ],
      "name": "safeTransferFrom",
      "outputs": [],
      "stateMutability": "nonpayable",
      "type": "function"
    },
    {
      "inputs": [
        {
          "internalType": "address",
          "name": "from",
          "type": "address"
        },
        {
          "internalType": "address",
          "name": "to",
          "type": "address"
        },
        {
          "internalType": "uint256",
          "name": "tokenId",
          "type": "uint256"
        },
        {
          "internalType": "bytes",
          "name": "_data",
          "type": "bytes"
        }
      ],
      "name": "safeTransferFrom",
      "outputs": [],
      "stateMutability": "nonpayable",
      "type": "function"
    },
    {
      "inputs": [
        {
          "internalType": "address",
          "name": "operator",
          "type": "address"
        },
        {
          "internalType": "bool",
          "name": "approved",
          "type": "bool"
        }
      ],
      "name": "setApprovalForAll",
      "outputs": [],
      "stateMutability": "nonpayable",
      "type": "function"
    },
    {
      "inputs": [
        {
          "internalType": "uint256",
          "name": "tokenId",
          "type": "uint256"
        }
      ],
      "name": "startBattle",
      "outputs": [],
      "stateMutability": "nonpayable",
      "type": "function"
    },
    {
      "inputs": [
        {
          "internalType": "bytes4",
          "name": "interfaceId",
          "type": "bytes4"
        }
      ],
      "name": "supportsInterface",
      "outputs": [
        {
          "internalType": "bool",
          "name": "",
          "type": "bool"
        }
      ],
      "stateMutability": "view",
      "type": "function"
    },
    {
      "inputs": [],
      "name": "symbol",
      "outputs": [
        {
          "internalType": "string",
          "name": "",
          "type": "string"
        }
      ],
      "stateMutability": "view",
      "type": "function"
    },
    {
      "inputs": [
        {
          "internalType": "uint256",
          "name": "index",
          "type": "uint256"
        }
      ],
      "name": "tokenByIndex",
      "outputs": [
        {
          "internalType": "uint256",
          "name": "",
          "type": "uint256"
        }
      ],
      "stateMutability": "view",
      "type": "function"
    },
    {
      "inputs": [
        {
          "internalType": "address",
          "name": "owner",
          "type": "address"
        },
        {
          "internalType": "uint256",
          "name": "index",
          "type": "uint256"
        }
      ],
      "name": "tokenOfOwnerByIndex",
      "outputs": [
        {
          "internalType": "uint256",
          "name": "",
          "type": "uint256"
        }
      ],
      "stateMutability": "view",
      "type": "function"
    },
    {
      "inputs": [
        {
          "internalType": "uint256",
          "name": "tokenId",
          "type": "uint256"
        }
      ],
      "name": "tokenURI",
      "outputs": [
        {
          "internalType": "string",
          "name": "",
          "type": "string"
        }
      ],
      "stateMutability": "view",
      "type": "function"
    },
    {
      "inputs": [],
      "name": "totalSupply",
      "outputs": [
        {
          "internalType": "uint256",
          "name": "",
          "type": "uint256"
        }
      ],
      "stateMutability": "view",
      "type": "function"
    },
    {
      "inputs": [
        {
          "internalType": "address",
          "name": "from",
          "type": "address"
        },
        {
          "internalType": "address",
          "name": "to",
          "type": "address"
        },
        {
          "internalType": "uint256",
          "name": "tokenId",
          "type": "uint256"
        }
      ],
      "name": "transferFrom",
      "outputs": [],
      "stateMutability": "nonpayable",
      "type": "function"
    },
    {
      "inputs": [
        {
          "internalType": "address",
          "name": "newOwner",
          "type": "address"
        }
      ],
      "name": "transferOwnership",
      "outputs": [],
      "stateMutability": "nonpayable",
      "type": "function"
    }
  ],
  "bytecode": "0x60806040523480156200001157600080fd5b506040518060400160405280600b81526020017f4176617461724172656e610000000000000000000000000000000000000000008152506040518060400160405280600481526020017f4156415200000000000000000000000000000000000000000000000000000000815250816000908051906020019062000096929190620001c4565b508060019080519060200190620000af929190620001c4565b505050620000d2620000c6620000f660201b60201c565b620000fe60201b60201c565b600c60018160018154018082558091505003906000526020600020905050620002d9565b600033905090565b6000600b60009054906101000a900473ffffffffffffffffffffffffffffffffffffffff16905081600b60006101000a81548173ffffffffffffffffffffffffffffffffffffffff021916908373ffffffffffffffffffffffffffffffffffffffff1602179055508173ffffffffffffffffffffffffffffffffffffffff168173ffffffffffffffffffffffffffffffffffffffff167f8be0079c531659141344cd1fd0a4f28419497f9722a3daafe3b4186f6b6457e060405160405180910390a35050565b828054620001d29062000274565b90600052602060002090601f016020900481019282620001f6576000855562000242565b82601f106200021157805160ff191683800117855562000242565b8280016001018555821562000242579182015b828111156200024157825182559160200191906001019062000224565b5b50905062000251919062000255565b5090565b5b808211156200027057600081600090555060010162000256565b5090565b600060028204905060018216806200028d57607f821691505b60208210811415620002a457620002a3620002aa565b5b50919050565b7f4e487b7100000000000000000000000000000000000000000000000000000000600052602260045260246000fd5b6146af80620002e96000396000f3fe608060405234801561001057600080fd5b50600436106101585760003560e01c8063715018a6116100c3578063b88d4fde1161007c578063b88d4fde146103d7578063c87b56dd146103f3578063d204c45e14610423578063d7aacb3e1461043f578063e985e9c51461045d578063f2fde38b1461048d57610158565b8063715018a6146103295780638da5cb5b146103335780638e6807f81461035157806395d89b411461036d5780639ab055b31461038b578063a22cb465146103bb57610158565b80632f745c59116101155780632f745c591461023157806342842e0e1461026157806342966c681461027d5780634f6ccce7146102995780636352211e146102c957806370a08231146102f957610158565b806301ffc9a71461015d57806306fdde031461018d578063081812fc146101ab578063095ea7b3146101db57806318160ddd146101f757806323b872dd14610215575b600080fd5b61017760048036038101906101729190613168565b6104a9565b60405161018491906137df565b60405180910390f35b6101956104bb565b6040516101a291906137fa565b60405180910390f35b6101c560048036038101906101c091906131ba565b61054d565b6040516101d29190613778565b60405180910390f35b6101f560048036038101906101f0919061312c565b6105d2565b005b6101ff6106ea565b60405161020c9190613b1e565b60405180910390f35b61022f600480360381019061022a9190612fd2565b6106f7565b005b61024b6004803603810190610246919061312c565b610757565b6040516102589190613b1e565b60405180910390f35b61027b60048036038101906102769190612fd2565b6107fc565b005b610297600480360381019061029291906131ba565b61081c565b005b6102b360048036038101906102ae91906131ba565b610878565b6040516102c09190613b1e565b60405180910390f35b6102e360048036038101906102de91906131ba565b61090f565b6040516102f09190613778565b60405180910390f35b610313600480360381019061030e9190612f44565b6109c1565b6040516103209190613b1e565b60405180910390f35b610331610a79565b005b61033b610b01565b6040516103489190613778565b60405180910390f35b61036b600480360381019061036691906131ba565b610b2b565b005b610375610fee565b60405161038291906137fa565b60405180910390f35b6103a560048036038101906103a091906131ba565b611080565b6040516103b29190613b1e565b60405180910390f35b6103d560048036038101906103d0919061309c565b61109d565b005b6103f160048036038101906103ec9190613021565b6110b3565b005b61040d600480360381019061040891906131ba565b611115565b60405161041a91906137fa565b60405180910390f35b61043d600480360381019061043891906130d8565b611127565b005b610447611158565b6040516104549190613afc565b60405180910390f35b61047760048036038101906104729190612f96565b6112d0565b60405161048491906137df565b60405180910390f35b6104a760048036038101906104a29190612f44565b611364565b005b60006104b48261145c565b9050919050565b6060600080546104ca90613db7565b80601f01602080910402602001604051908101604052809291908181526020018280546104f690613db7565b80156105435780601f1061051857610100808354040283529160200191610543565b820191906000526020600020905b81548152906001019060200180831161052657829003601f168201915b5050505050905090565b6000610558826114d6565b610597576040517f08c379a000000000000000000000000000000000000000000000000000000000815260040161058e906139fc565b60405180910390fd5b6004600083815260200190815260200160002060009054906101000a900473ffffffffffffffffffffffffffffffffffffffff169050919050565b60006105dd8261090f565b90508073ffffffffffffffffffffffffffffffffffffffff168373ffffffffffffffffffffffffffffffffffffffff16141561064e576040517f08c379a000000000000000000000000000000000000000000000000000000000815260040161064590613a7c565b60405180910390fd5b8073ffffffffffffffffffffffffffffffffffffffff1661066d611542565b73ffffffffffffffffffffffffffffffffffffffff16148061069c575061069b81610696611542565b6112d0565b5b6106db576040517f08c379a00000000000000000000000000000000000000000000000000000000081526004016106d29061393c565b60405180910390fd5b6106e5838361154a565b505050565b6000600880549050905090565b610708610702611542565b82611603565b610747576040517f08c379a000000000000000000000000000000000000000000000000000000000815260040161073e90613a9c565b60405180910390fd5b6107528383836116e1565b505050565b6000610762836109c1565b82106107a3576040517f08c379a000000000000000000000000000000000000000000000000000000000815260040161079a9061381c565b60405180910390fd5b600660008473ffffffffffffffffffffffffffffffffffffffff1673ffffffffffffffffffffffffffffffffffffffff168152602001908152602001600020600083815260200190815260200160002054905092915050565b610817838383604051806020016040528060008152506110b3565b505050565b61082d610827611542565b82611603565b61086c576040517f08c379a000000000000000000000000000000000000000000000000000000000815260040161086390613adc565b60405180910390fd5b61087581611948565b50565b60006108826106ea565b82106108c3576040517f08c379a00000000000000000000000000000000000000000000000000000000081526004016108ba90613abc565b60405180910390fd5b600882815481106108fd577f4e487b7100000000000000000000000000000000000000000000000000000000600052603260045260246000fd5b90600052602060002001549050919050565b6000806002600084815260200190815260200160002060009054906101000a900473ffffffffffffffffffffffffffffffffffffffff169050600073ffffffffffffffffffffffffffffffffffffffff168173ffffffffffffffffffffffffffffffffffffffff1614156109b8576040517f08c379a00000000000000000000000000000000000000000000000000000000081526004016109af9061397c565b60405180910390fd5b80915050919050565b60008073ffffffffffffffffffffffffffffffffffffffff168273ffffffffffffffffffffffffffffffffffffffff161415610a32576040517f08c379a0000000000000000000000000000000000000000000000000000000008152600401610a299061395c565b60405180910390fd5b600360008373ffffffffffffffffffffffffffffffffffffffff1673ffffffffffffffffffffffffffffffffffffffff168152602001908152602001600020549050919050565b610a81611542565b73ffffffffffffffffffffffffffffffffffffffff16610a9f610b01565b73ffffffffffffffffffffffffffffffffffffffff1614610af5576040517f08c379a0000000000000000000000000000000000000000000000000000000008152600401610aec90613a1c565b60405180910390fd5b610aff6000611954565b565b6000600b60009054906101000a900473ffffffffffffffffffffffffffffffffffffffff16905090565b3373ffffffffffffffffffffffffffffffffffffffff163073ffffffffffffffffffffffffffffffffffffffff16636352211e836040518263ffffffff1660e01b8152600401610b7b9190613b1e565b60206040518083038186803b158015610b9357600080fd5b505afa158015610ba7573d6000803e3d6000fd5b505050506040513d601f19601f82011682018060405250810190610bcb9190612f6d565b73ffffffffffffffffffffffffffffffffffffffff1614610c21576040517f08c379a0000000000000000000000000000000000000000000000000000000008152600401610c1890613a5c565b60405180910390fd5b6001600c805490501115610e935760006001600c80549050610c439190613cc3565b90506000600c8281548110610c81577f4e487b7100000000000000000000000000000000000000000000000000000000600052603260045260246000fd5b9060005260206000209060030201905060018160000180549050148015610d4157503373ffffffffffffffffffffffffffffffffffffffff1681600001600081548110610cf7577f4e487b7100000000000000000000000000000000000000000000000000000000600052603260045260246000fd5b906000526020600020906002020160000160009054906101000a900473ffffffffffffffffffffffffffffffffffffffff1673ffffffffffffffffffffffffffffffffffffffff16145b15610d81576040517f08c379a0000000000000000000000000000000000000000000000000000000008152600401610d78906138fc565b60405180910390fd5b600181600001805490501415610e90578060000160405180604001604052803373ffffffffffffffffffffffffffffffffffffffff16815260200185815250908060018154018082558091505060019003906000526020600020906002020160009091909190915060008201518160000160006101000a81548173ffffffffffffffffffffffffffffffffffffffff021916908373ffffffffffffffffffffffffffffffffffffffff16021790555060208201518160010155505081600d60003373ffffffffffffffffffffffffffffffffffffffff1673ffffffffffffffffffffffffffffffffffffffff16815260200190815260200160002081905550610e8982611a1a565b5050610feb565b50505b6000600c60018160018154018082558091505003906000526020600020906003020190508060000160405180604001604052803373ffffffffffffffffffffffffffffffffffffffff16815260200184815250908060018154018082558091505060019003906000526020600020906002020160009091909190915060008201518160000160006101000a81548173ffffffffffffffffffffffffffffffffffffffff021916908373ffffffffffffffffffffffffffffffffffffffff1602179055506020820151816001015550504281600101819055507fffffffffffffffffffffffffffffffffffffffffffffffffffffffffffffffff81600201819055506001600c80549050610fa69190613cc3565b600d60003373ffffffffffffffffffffffffffffffffffffffff1673ffffffffffffffffffffffffffffffffffffffff16815260200190815260200160002081905550505b50565b606060018054610ffd90613db7565b80601f016020809104026020016040519081016040528092919081815260200182805461102990613db7565b80156110765780601f1061104b57610100808354040283529160200191611076565b820191906000526020600020905b81548152906001019060200180831161105957829003601f168201915b5050505050905090565b6000600e6000838152602001908152602001600020549050919050565b6110af6110a8611542565b8383611b65565b5050565b6110c46110be611542565b83611603565b611103576040517f08c379a00000000000000000000000000000000000000000000000000000000081526004016110fa90613a9c565b60405180910390fd5b61110f84848484611cd2565b50505050565b606061112082611d2e565b9050919050565b6000611133600f611e80565b905061113f600f611e8e565b6111498382611ea4565b6111538183611ec2565b505050565b611160612cf2565b6000600d60003373ffffffffffffffffffffffffffffffffffffffff1673ffffffffffffffffffffffffffffffffffffffff168152602001908152602001600020549050600c81815481106111de577f4e487b7100000000000000000000000000000000000000000000000000000000600052603260045260246000fd5b906000526020600020906003020160405180606001604052908160008201805480602002602001604051908101604052809291908181526020016000905b828210156112ae57838290600052602060002090600202016040518060400160405290816000820160009054906101000a900473ffffffffffffffffffffffffffffffffffffffff1673ffffffffffffffffffffffffffffffffffffffff1673ffffffffffffffffffffffffffffffffffffffff1681526020016001820154815250508152602001906001019061121c565b5050505081526020016001820154815260200160028201548152505091505090565b6000600560008473ffffffffffffffffffffffffffffffffffffffff1673ffffffffffffffffffffffffffffffffffffffff16815260200190815260200160002060008373ffffffffffffffffffffffffffffffffffffffff1673ffffffffffffffffffffffffffffffffffffffff16815260200190815260200160002060009054906101000a900460ff16905092915050565b61136c611542565b73ffffffffffffffffffffffffffffffffffffffff1661138a610b01565b73ffffffffffffffffffffffffffffffffffffffff16146113e0576040517f08c379a00000000000000000000000000000000000000000000000000000000081526004016113d790613a1c565b60405180910390fd5b600073ffffffffffffffffffffffffffffffffffffffff168173ffffffffffffffffffffffffffffffffffffffff161415611450576040517f08c379a00000000000000000000000000000000000000000000000000000000081526004016114479061385c565b60405180910390fd5b61145981611954565b50565b60007f780e9d63000000000000000000000000000000000000000000000000000000007bffffffffffffffffffffffffffffffffffffffffffffffffffffffff1916827bffffffffffffffffffffffffffffffffffffffffffffffffffffffff191614806114cf57506114ce82611f36565b5b9050919050565b60008073ffffffffffffffffffffffffffffffffffffffff166002600084815260200190815260200160002060009054906101000a900473ffffffffffffffffffffffffffffffffffffffff1673ffffffffffffffffffffffffffffffffffffffff1614159050919050565b600033905090565b816004600083815260200190815260200160002060006101000a81548173ffffffffffffffffffffffffffffffffffffffff021916908373ffffffffffffffffffffffffffffffffffffffff160217905550808273ffffffffffffffffffffffffffffffffffffffff166115bd8361090f565b73ffffffffffffffffffffffffffffffffffffffff167f8c5be1e5ebec7d5bd14f71427d1e84f3dd0314c0f7b2291e5b200ac8c7c3b92560405160405180910390a45050565b600061160e826114d6565b61164d576040517f08c379a00000000000000000000000000000000000000000000000000000000081526004016116449061391c565b60405180910390fd5b60006116588361090f565b90508073ffffffffffffffffffffffffffffffffffffffff168473ffffffffffffffffffffffffffffffffffffffff1614806116c757508373ffffffffffffffffffffffffffffffffffffffff166116af8461054d565b73ffffffffffffffffffffffffffffffffffffffff16145b806116d857506116d781856112d0565b5b91505092915050565b8273ffffffffffffffffffffffffffffffffffffffff166117018261090f565b73ffffffffffffffffffffffffffffffffffffffff1614611757576040517f08c379a000000000000000000000000000000000000000000000000000000000815260040161174e9061387c565b60405180910390fd5b600073ffffffffffffffffffffffffffffffffffffffff168273ffffffffffffffffffffffffffffffffffffffff1614156117c7576040517f08c379a00000000000000000000000000000000000000000000000000000000081526004016117be906138bc565b60405180910390fd5b6117d2838383612018565b6117dd60008261154a565b6001600360008573ffffffffffffffffffffffffffffffffffffffff1673ffffffffffffffffffffffffffffffffffffffff168152602001908152602001600020600082825461182d9190613cc3565b925050819055506001600360008473ffffffffffffffffffffffffffffffffffffffff1673ffffffffffffffffffffffffffffffffffffffff16815260200190815260200160002060008282546118849190613c3c565b92505081905550816002600083815260200190815260200160002060006101000a81548173ffffffffffffffffffffffffffffffffffffffff021916908373ffffffffffffffffffffffffffffffffffffffff160217905550808273ffffffffffffffffffffffffffffffffffffffff168473ffffffffffffffffffffffffffffffffffffffff167fddf252ad1be2c89b69c2b068fc378daa952ba7f163c4a11628f55a4df523b3ef60405160405180910390a4611943838383612028565b505050565b6119518161202d565b50565b6000600b60009054906101000a900473ffffffffffffffffffffffffffffffffffffffff16905081600b60006101000a81548173ffffffffffffffffffffffffffffffffffffffff021916908373ffffffffffffffffffffffffffffffffffffffff1602179055508173ffffffffffffffffffffffffffffffffffffffff168173ffffffffffffffffffffffffffffffffffffffff167f8be0079c531659141344cd1fd0a4f28419497f9722a3daafe3b4186f6b6457e060405160405180910390a35050565b600060024233604051602001611a3192919061374c565b6040516020818303038152906040528051906020012060001c611a549190613e91565b90506000600c8381548110611a92577f4e487b7100000000000000000000000000000000000000000000000000000000600052603260045260246000fd5b906000526020600020906003020190508181600201819055506000816000018381548110611ae9577f4e487b7100000000000000000000000000000000000000000000000000000000600052603260045260246000fd5b90600052602060002090600202016001015490506001600e60008381526020019081526020016000206000828254611b219190613c3c565b925050819055507f59d70e1b512825833c0d38f2b7ce12846777b4d3a962bcf6255661166701e5b484604051611b579190613b1e565b60405180910390a150505050565b8173ffffffffffffffffffffffffffffffffffffffff168373ffffffffffffffffffffffffffffffffffffffff161415611bd4576040517f08c379a0000000000000000000000000000000000000000000000000000000008152600401611bcb906138dc565b60405180910390fd5b80600560008573ffffffffffffffffffffffffffffffffffffffff1673ffffffffffffffffffffffffffffffffffffffff16815260200190815260200160002060008473ffffffffffffffffffffffffffffffffffffffff1673ffffffffffffffffffffffffffffffffffffffff16815260200190815260200160002060006101000a81548160ff0219169083151502179055508173ffffffffffffffffffffffffffffffffffffffff168373ffffffffffffffffffffffffffffffffffffffff167f17307eab39ab6107e8899845ad3d59bd9653f200f220920489ca2b5937696c3183604051611cc591906137df565b60405180910390a3505050565b611cdd8484846116e1565b611ce984848484612080565b611d28576040517f08c379a0000000000000000000000000000000000000000000000000000000008152600401611d1f9061383c565b60405180910390fd5b50505050565b6060611d39826114d6565b611d78576040517f08c379a0000000000000000000000000000000000000000000000000000000008152600401611d6f906139dc565b60405180910390fd5b6000600a60008481526020019081526020016000208054611d9890613db7565b80601f0160208091040260200160405190810160405280929190818152602001828054611dc490613db7565b8015611e115780601f10611de657610100808354040283529160200191611e11565b820191906000526020600020905b815481529060010190602001808311611df457829003601f168201915b505050505090506000611e22612217565b9050600081511415611e38578192505050611e7b565b600082511115611e6d578082604051602001611e55929190613728565b60405160208183030381529060405292505050611e7b565b611e768461222e565b925050505b919050565b600081600001549050919050565b6001816000016000828254019250508190555050565b611ebe8282604051806020016040528060008152506122d5565b5050565b611ecb826114d6565b611f0a576040517f08c379a0000000000000000000000000000000000000000000000000000000008152600401611f019061399c565b60405180910390fd5b80600a60008481526020019081526020016000209080519060200190611f31929190612d13565b505050565b60007f80ac58cd000000000000000000000000000000000000000000000000000000007bffffffffffffffffffffffffffffffffffffffffffffffffffffffff1916827bffffffffffffffffffffffffffffffffffffffffffffffffffffffff1916148061200157507f5b5e139f000000000000000000000000000000000000000000000000000000007bffffffffffffffffffffffffffffffffffffffffffffffffffffffff1916827bffffffffffffffffffffffffffffffffffffffffffffffffffffffff1916145b80612011575061201082612330565b5b9050919050565b61202383838361239a565b505050565b505050565b612036816124ae565b6000600a6000838152602001908152602001600020805461205690613db7565b90501461207d57600a6000828152602001908152602001600020600061207c9190612d99565b5b50565b60006120a18473ffffffffffffffffffffffffffffffffffffffff166125cb565b1561220a578373ffffffffffffffffffffffffffffffffffffffff1663150b7a026120ca611542565b8786866040518563ffffffff1660e01b81526004016120ec9493929190613793565b602060405180830381600087803b15801561210657600080fd5b505af192505050801561213757506040513d601f19601f820116820180604052508101906121349190613191565b60015b6121ba573d8060008114612167576040519150601f19603f3d011682016040523d82523d6000602084013e61216c565b606091505b506000815114156121b2576040517f08c379a00000000000000000000000000000000000000000000000000000000081526004016121a99061383c565b60405180910390fd5b805181602001fd5b63150b7a0260e01b7bffffffffffffffffffffffffffffffffffffffffffffffffffffffff1916817bffffffffffffffffffffffffffffffffffffffffffffffffffffffff19161491505061220f565b600190505b949350505050565b606060405180602001604052806000815250905090565b6060612239826114d6565b612278576040517f08c379a000000000000000000000000000000000000000000000000000000000815260040161226f90613a3c565b60405180910390fd5b6000612282612217565b905060008151116122a257604051806020016040528060008152506122cd565b806122ac846125ee565b6040516020016122bd929190613728565b6040516020818303038152906040525b915050919050565b6122df838361279b565b6122ec6000848484612080565b61232b576040517f08c379a00000000000000000000000000000000000000000000000000000000081526004016123229061383c565b60405180910390fd5b505050565b60007f01ffc9a7000000000000000000000000000000000000000000000000000000007bffffffffffffffffffffffffffffffffffffffffffffffffffffffff1916827bffffffffffffffffffffffffffffffffffffffffffffffffffffffff1916149050919050565b6123a5838383612975565b600073ffffffffffffffffffffffffffffffffffffffff168373ffffffffffffffffffffffffffffffffffffffff1614156123e8576123e38161297a565b612427565b8173ffffffffffffffffffffffffffffffffffffffff168373ffffffffffffffffffffffffffffffffffffffff16146124265761242583826129c3565b5b5b600073ffffffffffffffffffffffffffffffffffffffff168273ffffffffffffffffffffffffffffffffffffffff16141561246a5761246581612b30565b6124a9565b8273ffffffffffffffffffffffffffffffffffffffff168273ffffffffffffffffffffffffffffffffffffffff16146124a8576124a78282612c73565b5b5b505050565b60006124b98261090f565b90506124c781600084612018565b6124d260008361154a565b6001600360008373ffffffffffffffffffffffffffffffffffffffff1673ffffffffffffffffffffffffffffffffffffffff16815260200190815260200160002060008282546125229190613cc3565b925050819055506002600083815260200190815260200160002060006101000a81549073ffffffffffffffffffffffffffffffffffffffff021916905581600073ffffffffffffffffffffffffffffffffffffffff168273ffffffffffffffffffffffffffffffffffffffff167fddf252ad1be2c89b69c2b068fc378daa952ba7f163c4a11628f55a4df523b3ef60405160405180910390a46125c781600084612028565b5050565b6000808273ffffffffffffffffffffffffffffffffffffffff163b119050919050565b60606000821415612636576040518060400160405280600181526020017f30000000000000000000000000000000000000000000000000000000000000008152509050612796565b600082905060005b6000821461266857808061265190613e1a565b915050600a826126619190613c92565b915061263e565b60008167ffffffffffffffff8111156126aa577f4e487b7100000000000000000000000000000000000000000000000000000000600052604160045260246000fd5b6040519080825280601f01601f1916602001820160405280156126dc5781602001600182028036833780820191505090505b5090505b6000851461278f576001826126f59190613cc3565b9150600a856127049190613e91565b60306127109190613c3c565b60f81b81838151811061274c577f4e487b7100000000000000000000000000000000000000000000000000000000600052603260045260246000fd5b60200101907effffffffffffffffffffffffffffffffffffffffffffffffffffffffffffff1916908160001a905350600a856127889190613c92565b94506126e0565b8093505050505b919050565b600073ffffffffffffffffffffffffffffffffffffffff168273ffffffffffffffffffffffffffffffffffffffff16141561280b576040517f08c379a0000000000000000000000000000000000000000000000000000000008152600401612802906139bc565b60405180910390fd5b612814816114d6565b15612854576040517f08c379a000000000000000000000000000000000000000000000000000000000815260040161284b9061389c565b60405180910390fd5b61286060008383612018565b6001600360008473ffffffffffffffffffffffffffffffffffffffff1673ffffffffffffffffffffffffffffffffffffffff16815260200190815260200160002060008282546128b09190613c3c565b92505081905550816002600083815260200190815260200160002060006101000a81548173ffffffffffffffffffffffffffffffffffffffff021916908373ffffffffffffffffffffffffffffffffffffffff160217905550808273ffffffffffffffffffffffffffffffffffffffff16600073ffffffffffffffffffffffffffffffffffffffff167fddf252ad1be2c89b69c2b068fc378daa952ba7f163c4a11628f55a4df523b3ef60405160405180910390a461297160008383612028565b5050565b505050565b6008805490506009600083815260200190815260200160002081905550600881908060018154018082558091505060019003906000526020600020016000909190919091505550565b600060016129d0846109c1565b6129da9190613cc3565b9050600060076000848152602001908152602001600020549050818114612abf576000600660008673ffffffffffffffffffffffffffffffffffffffff1673ffffffffffffffffffffffffffffffffffffffff168152602001908152602001600020600084815260200190815260200160002054905080600660008773ffffffffffffffffffffffffffffffffffffffff1673ffffffffffffffffffffffffffffffffffffffff168152602001908152602001600020600084815260200190815260200160002081905550816007600083815260200190815260200160002081905550505b6007600084815260200190815260200160002060009055600660008573ffffffffffffffffffffffffffffffffffffffff1673ffffffffffffffffffffffffffffffffffffffff16815260200190815260200160002060008381526020019081526020016000206000905550505050565b60006001600880549050612b449190613cc3565b9050600060096000848152602001908152602001600020549050600060088381548110612b9a577f4e487b7100000000000000000000000000000000000000000000000000000000600052603260045260246000fd5b906000526020600020015490508060088381548110612be2577f4e487b7100000000000000000000000000000000000000000000000000000000600052603260045260246000fd5b906000526020600020018190555081600960008381526020019081526020016000208190555060096000858152602001908152602001600020600090556008805480612c57577f4e487b7100000000000000000000000000000000000000000000000000000000600052603160045260246000fd5b6001900381819060005260206000200160009055905550505050565b6000612c7e836109c1565b905081600660008573ffffffffffffffffffffffffffffffffffffffff1673ffffffffffffffffffffffffffffffffffffffff168152602001908152602001600020600083815260200190815260200160002081905550806007600084815260200190815260200160002081905550505050565b60405180606001604052806060815260200160008152602001600081525090565b828054612d1f90613db7565b90600052602060002090601f016020900481019282612d415760008555612d88565b82601f10612d5a57805160ff1916838001178555612d88565b82800160010185558215612d88579182015b82811115612d87578251825591602001919060010190612d6c565b5b509050612d959190612dd9565b5090565b508054612da590613db7565b6000825580601f10612db75750612dd6565b601f016020900490600052602060002090810190612dd59190612dd9565b5b50565b5b80821115612df2576000816000905550600101612dda565b5090565b6000612e09612e0484613b5e565b613b39565b905082815260208101848484011115612e2157600080fd5b612e2c848285613d75565b509392505050565b6000612e47612e4284613b8f565b613b39565b905082815260208101848484011115612e5f57600080fd5b612e6a848285613d75565b509392505050565b600081359050612e818161461d565b92915050565b600081519050612e968161461d565b92915050565b600081359050612eab81614634565b92915050565b600081359050612ec08161464b565b92915050565b600081519050612ed58161464b565b92915050565b600082601f830112612eec57600080fd5b8135612efc848260208601612df6565b91505092915050565b600082601f830112612f1657600080fd5b8135612f26848260208601612e34565b91505092915050565b600081359050612f3e81614662565b92915050565b600060208284031215612f5657600080fd5b6000612f6484828501612e72565b91505092915050565b600060208284031215612f7f57600080fd5b6000612f8d84828501612e87565b91505092915050565b60008060408385031215612fa957600080fd5b6000612fb785828601612e72565b9250506020612fc885828601612e72565b9150509250929050565b600080600060608486031215612fe757600080fd5b6000612ff586828701612e72565b935050602061300686828701612e72565b925050604061301786828701612f2f565b9150509250925092565b6000806000806080858703121561303757600080fd5b600061304587828801612e72565b945050602061305687828801612e72565b935050604061306787828801612f2f565b925050606085013567ffffffffffffffff81111561308457600080fd5b61309087828801612edb565b91505092959194509250565b600080604083850312156130af57600080fd5b60006130bd85828601612e72565b92505060206130ce85828601612e9c565b9150509250929050565b600080604083850312156130eb57600080fd5b60006130f985828601612e72565b925050602083013567ffffffffffffffff81111561311657600080fd5b61312285828601612f05565b9150509250929050565b6000806040838503121561313f57600080fd5b600061314d85828601612e72565b925050602061315e85828601612f2f565b9150509250929050565b60006020828403121561317a57600080fd5b600061318884828501612eb1565b91505092915050565b6000602082840312156131a357600080fd5b60006131b184828501612ec6565b91505092915050565b6000602082840312156131cc57600080fd5b60006131da84828501612f2f565b91505092915050565b60006131ef83836136c4565b60408301905092915050565b61320481613cf7565b82525050565b61321381613cf7565b82525050565b61322a61322582613cf7565b613e63565b82525050565b600061323b82613bd0565b6132458185613bfe565b935061325083613bc0565b8060005b8381101561328157815161326888826131e3565b975061327383613bf1565b925050600181019050613254565b5085935050505092915050565b61329781613d09565b82525050565b60006132a882613bdb565b6132b28185613c0f565b93506132c2818560208601613d84565b6132cb81613f7e565b840191505092915050565b6132df81613d41565b82525050565b60006132f082613be6565b6132fa8185613c20565b935061330a818560208601613d84565b61331381613f7e565b840191505092915050565b600061332982613be6565b6133338185613c31565b9350613343818560208601613d84565b80840191505092915050565b600061335c602b83613c20565b915061336782613f9c565b604082019050919050565b600061337f603283613c20565b915061338a82613feb565b604082019050919050565b60006133a2602683613c20565b91506133ad8261403a565b604082019050919050565b60006133c5602583613c20565b91506133d082614089565b604082019050919050565b60006133e8601c83613c20565b91506133f3826140d8565b602082019050919050565b600061340b602483613c20565b915061341682614101565b604082019050919050565b600061342e601983613c20565b915061343982614150565b602082019050919050565b6000613451603483613c20565b915061345c82614179565b604082019050919050565b6000613474602c83613c20565b915061347f826141c8565b604082019050919050565b6000613497603883613c20565b91506134a282614217565b604082019050919050565b60006134ba602a83613c20565b91506134c582614266565b604082019050919050565b60006134dd602983613c20565b91506134e8826142b5565b604082019050919050565b6000613500602e83613c20565b915061350b82614304565b604082019050919050565b6000613523602083613c20565b915061352e82614353565b602082019050919050565b6000613546603183613c20565b91506135518261437c565b604082019050919050565b6000613569602c83613c20565b9150613574826143cb565b604082019050919050565b600061358c602083613c20565b91506135978261441a565b602082019050919050565b60006135af602f83613c20565b91506135ba82614443565b604082019050919050565b60006135d2602f83613c20565b91506135dd82614492565b604082019050919050565b60006135f5602183613c20565b9150613600826144e1565b604082019050919050565b6000613618603183613c20565b915061362382614530565b604082019050919050565b600061363b602c83613c20565b91506136468261457f565b604082019050919050565b600061365e603083613c20565b9150613669826145ce565b604082019050919050565b600060608301600083015184820360008601526136918282613230565b91505060208301516136a660208601826136f3565b5060408301516136b960408601826132d6565b508091505092915050565b6040820160008201516136da60008501826131fb565b5060208201516136ed60208501826136f3565b50505050565b6136fc81613d6b565b82525050565b61370b81613d6b565b82525050565b61372261371d82613d6b565b613e87565b82525050565b6000613734828561331e565b9150613740828461331e565b91508190509392505050565b60006137588285613711565b6020820191506137688284613219565b6014820191508190509392505050565b600060208201905061378d600083018461320a565b92915050565b60006080820190506137a8600083018761320a565b6137b5602083018661320a565b6137c26040830185613702565b81810360608301526137d4818461329d565b905095945050505050565b60006020820190506137f4600083018461328e565b92915050565b6000602082019050818103600083015261381481846132e5565b905092915050565b600060208201905081810360008301526138358161334f565b9050919050565b6000602082019050818103600083015261385581613372565b9050919050565b6000602082019050818103600083015261387581613395565b9050919050565b60006020820190508181036000830152613895816133b8565b9050919050565b600060208201905081810360008301526138b5816133db565b9050919050565b600060208201905081810360008301526138d5816133fe565b9050919050565b600060208201905081810360008301526138f581613421565b9050919050565b6000602082019050818103600083015261391581613444565b9050919050565b6000602082019050818103600083015261393581613467565b9050919050565b600060208201905081810360008301526139558161348a565b9050919050565b60006020820190508181036000830152613975816134ad565b9050919050565b60006020820190508181036000830152613995816134d0565b9050919050565b600060208201905081810360008301526139b5816134f3565b9050919050565b600060208201905081810360008301526139d581613516565b9050919050565b600060208201905081810360008301526139f581613539565b9050919050565b60006020820190508181036000830152613a158161355c565b9050919050565b60006020820190508181036000830152613a358161357f565b9050919050565b60006020820190508181036000830152613a55816135a2565b9050919050565b60006020820190508181036000830152613a75816135c5565b9050919050565b60006020820190508181036000830152613a95816135e8565b9050919050565b60006020820190508181036000830152613ab58161360b565b9050919050565b60006020820190508181036000830152613ad58161362e565b9050919050565b60006020820190508181036000830152613af581613651565b9050919050565b60006020820190508181036000830152613b168184613674565b905092915050565b6000602082019050613b336000830184613702565b92915050565b6000613b43613b54565b9050613b4f8282613de9565b919050565b6000604051905090565b600067ffffffffffffffff821115613b7957613b78613f4f565b5b613b8282613f7e565b9050602081019050919050565b600067ffffffffffffffff821115613baa57613ba9613f4f565b5b613bb382613f7e565b9050602081019050919050565b6000819050602082019050919050565b600081519050919050565b600081519050919050565b600081519050919050565b6000602082019050919050565b600082825260208201905092915050565b600082825260208201905092915050565b600082825260208201905092915050565b600081905092915050565b6000613c4782613d6b565b9150613c5283613d6b565b9250827fffffffffffffffffffffffffffffffffffffffffffffffffffffffffffffffff03821115613c8757613c86613ec2565b5b828201905092915050565b6000613c9d82613d6b565b9150613ca883613d6b565b925082613cb857613cb7613ef1565b5b828204905092915050565b6000613cce82613d6b565b9150613cd983613d6b565b925082821015613cec57613ceb613ec2565b5b828203905092915050565b6000613d0282613d4b565b9050919050565b60008115159050919050565b60007fffffffff0000000000000000000000000000000000000000000000000000000082169050919050565b6000819050919050565b600073ffffffffffffffffffffffffffffffffffffffff82169050919050565b6000819050919050565b82818337600083830152505050565b60005b83811015613da2578082015181840152602081019050613d87565b83811115613db1576000848401525b50505050565b60006002820490506001821680613dcf57607f821691505b60208210811415613de357613de2613f20565b5b50919050565b613df282613f7e565b810181811067ffffffffffffffff82111715613e1157613e10613f4f565b5b80604052505050565b6000613e2582613d6b565b91507fffffffffffffffffffffffffffffffffffffffffffffffffffffffffffffffff821415613e5857613e57613ec2565b5b600182019050919050565b6000613e6e82613e75565b9050919050565b6000613e8082613f8f565b9050919050565b6000819050919050565b6000613e9c82613d6b565b9150613ea783613d6b565b925082613eb757613eb6613ef1565b5b828206905092915050565b7f4e487b7100000000000000000000000000000000000000000000000000000000600052601160045260246000fd5b7f4e487b7100000000000000000000000000000000000000000000000000000000600052601260045260246000fd5b7f4e487b7100000000000000000000000000000000000000000000000000000000600052602260045260246000fd5b7f4e487b7100000000000000000000000000000000000000000000000000000000600052604160045260246000fd5b6000601f19601f8301169050919050565b60008160601b9050919050565b7f455243373231456e756d657261626c653a206f776e657220696e646578206f7560008201527f74206f6620626f756e6473000000000000000000000000000000000000000000602082015250565b7f4552433732313a207472616e7366657220746f206e6f6e20455243373231526560008201527f63656976657220696d706c656d656e7465720000000000000000000000000000602082015250565b7f4f776e61626c653a206e6577206f776e657220697320746865207a65726f206160008201527f6464726573730000000000000000000000000000000000000000000000000000602082015250565b7f4552433732313a207472616e736665722066726f6d20696e636f72726563742060008201527f6f776e6572000000000000000000000000000000000000000000000000000000602082015250565b7f4552433732313a20746f6b656e20616c7265616479206d696e74656400000000600082015250565b7f4552433732313a207472616e7366657220746f20746865207a65726f2061646460008201527f7265737300000000000000000000000000000000000000000000000000000000602082015250565b7f4552433732313a20617070726f766520746f2063616c6c657200000000000000600082015250565b7f4172656e613a2043616e6e6f7420737461727420616e6f74686572206261747460008201527f6c65207768696c6520696e206120626174746c65000000000000000000000000602082015250565b7f4552433732313a206f70657261746f7220717565727920666f72206e6f6e657860008201527f697374656e7420746f6b656e0000000000000000000000000000000000000000602082015250565b7f4552433732313a20617070726f76652063616c6c6572206973206e6f74206f7760008201527f6e6572206e6f7220617070726f76656420666f7220616c6c0000000000000000602082015250565b7f4552433732313a2062616c616e636520717565727920666f7220746865207a6560008201527f726f206164647265737300000000000000000000000000000000000000000000602082015250565b7f4552433732313a206f776e657220717565727920666f72206e6f6e657869737460008201527f656e7420746f6b656e0000000000000000000000000000000000000000000000602082015250565b7f45524337323155524953746f726167653a2055524920736574206f66206e6f6e60008201527f6578697374656e7420746f6b656e000000000000000000000000000000000000602082015250565b7f4552433732313a206d696e7420746f20746865207a65726f2061646472657373600082015250565b7f45524337323155524953746f726167653a2055524920717565727920666f722060008201527f6e6f6e6578697374656e7420746f6b656e000000000000000000000000000000602082015250565b7f4552433732313a20617070726f76656420717565727920666f72206e6f6e657860008201527f697374656e7420746f6b656e0000000000000000000000000000000000000000602082015250565b7f4f776e61626c653a2063616c6c6572206973206e6f7420746865206f776e6572600082015250565b7f4552433732314d657461646174613a2055524920717565727920666f72206e6f60008201527f6e6578697374656e7420746f6b656e0000000000000000000000000000000000602082015250565b7f4172656e613a2043616e6e6f7420737461727420626174746c6520776974682060008201527f6e6f6e2d6f776e656420746f6b656e0000000000000000000000000000000000602082015250565b7f4552433732313a20617070726f76616c20746f2063757272656e74206f776e6560008201527f7200000000000000000000000000000000000000000000000000000000000000602082015250565b7f4552433732313a207472616e736665722063616c6c6572206973206e6f74206f60008201527f776e6572206e6f7220617070726f766564000000000000000000000000000000602082015250565b7f455243373231456e756d657261626c653a20676c6f62616c20696e646578206f60008201527f7574206f6620626f756e64730000000000000000000000000000000000000000602082015250565b7f4552433732314275726e61626c653a2063616c6c6572206973206e6f74206f7760008201527f6e6572206e6f7220617070726f76656400000000000000000000000000000000602082015250565b61462681613cf7565b811461463157600080fd5b50565b61463d81613d09565b811461464857600080fd5b50565b61465481613d15565b811461465f57600080fd5b50565b61466b81613d6b565b811461467657600080fd5b5056fea2646970667358221220d4b64563570f6102850ecaebb69c2f42bc379b6cecaa2203a56f9e6dd41243d664736f6c63430008040033",
  "linkReferences": {},
  "deployedLinkReferences": {}
}