{
  "_format": "hh-sol-artifact-1",
  "contractName": "AvatarArena",
  "sourceName": "contracts/AvatarArena.sol",
  "abi": [
    {
      "inputs": [],
      "stateMutability": "nonpayable",
      "type": "constructor"
    },
    {
      "anonymous": false,
      "inputs": [
        {
          "indexed": true,
          "internalType": "address",
          "name": "owner",
          "type": "address"
        },
        {
          "indexed": true,
          "internalType": "address",
          "name": "approved",
          "type": "address"
        },
        {
          "indexed": true,
          "internalType": "uint256",
          "name": "tokenId",
          "type": "uint256"
        }
      ],
      "name": "Approval",
      "type": "event"
    },
    {
      "anonymous": false,
      "inputs": [
        {
          "indexed": true,
          "internalType": "address",
          "name": "owner",
          "type": "address"
        },
        {
          "indexed": true,
          "internalType": "address",
          "name": "operator",
          "type": "address"
        },
        {
          "indexed": false,
          "internalType": "bool",
          "name": "approved",
          "type": "bool"
        }
      ],
      "name": "ApprovalForAll",
      "type": "event"
    },
    {
      "anonymous": false,
      "inputs": [
        {
          "indexed": false,
          "internalType": "uint256",
          "name": "battleIndex",
          "type": "uint256"
        }
      ],
      "name": "BattleComplete",
      "type": "event"
    },
    {
      "anonymous": false,
      "inputs": [
        {
          "indexed": true,
          "internalType": "address",
          "name": "previousOwner",
          "type": "address"
        },
        {
          "indexed": true,
          "internalType": "address",
          "name": "newOwner",
          "type": "address"
        }
      ],
      "name": "OwnershipTransferred",
      "type": "event"
    },
    {
      "anonymous": false,
      "inputs": [
        {
          "indexed": true,
          "internalType": "address",
          "name": "from",
          "type": "address"
        },
        {
          "indexed": true,
          "internalType": "address",
          "name": "to",
          "type": "address"
        },
        {
          "indexed": true,
          "internalType": "uint256",
          "name": "tokenId",
          "type": "uint256"
        }
      ],
      "name": "Transfer",
      "type": "event"
    },
    {
      "inputs": [
        {
          "internalType": "address",
          "name": "to",
          "type": "address"
        },
        {
          "internalType": "uint256",
          "name": "tokenId",
          "type": "uint256"
        }
      ],
      "name": "approve",
      "outputs": [],
      "stateMutability": "nonpayable",
      "type": "function"
    },
    {
      "inputs": [
        {
          "internalType": "address",
          "name": "owner",
          "type": "address"
        }
      ],
      "name": "balanceOf",
      "outputs": [
        {
          "internalType": "uint256",
          "name": "",
          "type": "uint256"
        }
      ],
      "stateMutability": "view",
      "type": "function"
    },
    {
      "inputs": [
        {
          "internalType": "uint256",
          "name": "tokenId",
          "type": "uint256"
        }
      ],
      "name": "getApproved",
      "outputs": [
        {
          "internalType": "address",
          "name": "",
          "type": "address"
        }
      ],
      "stateMutability": "view",
      "type": "function"
    },
    {
      "inputs": [
        {
          "internalType": "uint256",
          "name": "tokenId",
          "type": "uint256"
        }
      ],
      "name": "getAvatarWins",
      "outputs": [
        {
          "internalType": "uint256",
          "name": "",
          "type": "uint256"
        }
      ],
      "stateMutability": "view",
      "type": "function"
    },
    {
      "inputs": [],
      "name": "getBattle",
      "outputs": [
        {
          "components": [
            {
              "components": [
                {
                  "internalType": "address",
                  "name": "player",
                  "type": "address"
                },
                {
                  "internalType": "uint256",
                  "name": "nft",
                  "type": "uint256"
                }
              ],
              "internalType": "struct Arena.Player[]",
              "name": "players",
              "type": "tuple[]"
            },
            {
              "internalType": "uint256",
              "name": "createdAt",
              "type": "uint256"
            },
            {
              "internalType": "int256",
              "name": "winner",
              "type": "int256"
            }
          ],
          "internalType": "struct Arena.Battle",
          "name": "",
          "type": "tuple"
        }
      ],
      "stateMutability": "view",
      "type": "function"
    },
    {
      "inputs": [
        {
          "internalType": "address",
          "name": "owner",
          "type": "address"
        },
        {
          "internalType": "address",
          "name": "operator",
          "type": "address"
        }
      ],
      "name": "isApprovedForAll",
      "outputs": [
        {
          "internalType": "bool",
          "name": "",
          "type": "bool"
        }
      ],
      "stateMutability": "view",
      "type": "function"
    },
    {
      "inputs": [],
      "name": "name",
      "outputs": [
        {
          "internalType": "string",
          "name": "",
          "type": "string"
        }
      ],
      "stateMutability": "view",
      "type": "function"
    },
    {
      "inputs": [],
      "name": "owner",
      "outputs": [
        {
          "internalType": "address",
          "name": "",
          "type": "address"
        }
      ],
      "stateMutability": "view",
      "type": "function"
    },
    {
      "inputs": [
        {
          "internalType": "uint256",
          "name": "tokenId",
          "type": "uint256"
        }
      ],
      "name": "ownerOf",
      "outputs": [
        {
          "internalType": "address",
          "name": "",
          "type": "address"
        }
      ],
      "stateMutability": "view",
      "type": "function"
    },
    {
      "inputs": [],
      "name": "renounceOwnership",
      "outputs": [],
      "stateMutability": "nonpayable",
      "type": "function"
    },
    {
      "inputs": [
        {
          "internalType": "address",
          "name": "to",
          "type": "address"
        },
        {
          "internalType": "string",
          "name": "uri",
          "type": "string"
        }
      ],
      "name": "safeMint",
      "outputs": [],
      "stateMutability": "nonpayable",
      "type": "function"
    },
    {
      "inputs": [
        {
          "internalType": "address",
          "name": "from",
          "type": "address"
        },
        {
          "internalType": "address",
          "name": "to",
          "type": "address"
        },
        {
          "internalType": "uint256",
          "name": "tokenId",
          "type": "uint256"
        }
      ],
      "name": "safeTransferFrom",
      "outputs": [],
      "stateMutability": "nonpayable",
      "type": "function"
    },
    {
      "inputs": [
        {
          "internalType": "address",
          "name": "from",
          "type": "address"
        },
        {
          "internalType": "address",
          "name": "to",
          "type": "address"
        },
        {
          "internalType": "uint256",
          "name": "tokenId",
          "type": "uint256"
        },
        {
          "internalType": "bytes",
          "name": "_data",
          "type": "bytes"
        }
      ],
      "name": "safeTransferFrom",
      "outputs": [],
      "stateMutability": "nonpayable",
      "type": "function"
    },
    {
      "inputs": [
        {
          "internalType": "address",
          "name": "operator",
          "type": "address"
        },
        {
          "internalType": "bool",
          "name": "approved",
          "type": "bool"
        }
      ],
      "name": "setApprovalForAll",
      "outputs": [],
      "stateMutability": "nonpayable",
      "type": "function"
    },
    {
      "inputs": [
        {
          "internalType": "uint256",
          "name": "tokenId",
          "type": "uint256"
        }
      ],
      "name": "startBattle",
      "outputs": [],
      "stateMutability": "nonpayable",
      "type": "function"
    },
    {
      "inputs": [
        {
          "internalType": "bytes4",
          "name": "interfaceId",
          "type": "bytes4"
        }
      ],
      "name": "supportsInterface",
      "outputs": [
        {
          "internalType": "bool",
          "name": "",
          "type": "bool"
        }
      ],
      "stateMutability": "view",
      "type": "function"
    },
    {
      "inputs": [],
      "name": "symbol",
      "outputs": [
        {
          "internalType": "string",
          "name": "",
          "type": "string"
        }
      ],
      "stateMutability": "view",
      "type": "function"
    },
    {
      "inputs": [
        {
          "internalType": "uint256",
          "name": "index",
          "type": "uint256"
        }
      ],
      "name": "tokenByIndex",
      "outputs": [
        {
          "internalType": "uint256",
          "name": "",
          "type": "uint256"
        }
      ],
      "stateMutability": "view",
      "type": "function"
    },
    {
      "inputs": [
        {
          "internalType": "address",
          "name": "owner",
          "type": "address"
        },
        {
          "internalType": "uint256",
          "name": "index",
          "type": "uint256"
        }
      ],
      "name": "tokenOfOwnerByIndex",
      "outputs": [
        {
          "internalType": "uint256",
          "name": "",
          "type": "uint256"
        }
      ],
      "stateMutability": "view",
      "type": "function"
    },
    {
      "inputs": [
        {
          "internalType": "uint256",
          "name": "tokenId",
          "type": "uint256"
        }
      ],
      "name": "tokenURI",
      "outputs": [
        {
          "internalType": "string",
          "name": "",
          "type": "string"
        }
      ],
      "stateMutability": "view",
      "type": "function"
    },
    {
      "inputs": [],
      "name": "totalSupply",
      "outputs": [
        {
          "internalType": "uint256",
          "name": "",
          "type": "uint256"
        }
      ],
      "stateMutability": "view",
      "type": "function"
    },
    {
      "inputs": [
        {
          "internalType": "address",
          "name": "from",
          "type": "address"
        },
        {
          "internalType": "address",
          "name": "to",
          "type": "address"
        },
        {
          "internalType": "uint256",
          "name": "tokenId",
          "type": "uint256"
        }
      ],
      "name": "transferFrom",
      "outputs": [],
      "stateMutability": "nonpayable",
      "type": "function"
    },
    {
      "inputs": [
        {
          "internalType": "address",
          "name": "newOwner",
          "type": "address"
        }
      ],
      "name": "transferOwnership",
      "outputs": [],
      "stateMutability": "nonpayable",
      "type": "function"
    }
  ],
  "bytecode": "0x60806040523480156200001157600080fd5b506040518060400160405280600b81526020017f4176617461724172656e610000000000000000000000000000000000000000008152506040518060400160405280600481526020017f4156415200000000000000000000000000000000000000000000000000000000815250816000908051906020019062000096929190620001c4565b508060019080519060200190620000af929190620001c4565b505050620000d2620000c6620000f660201b60201c565b620000fe60201b60201c565b600c60018160018154018082558091505003906000526020600020905050620002d9565b600033905090565b6000600b60009054906101000a900473ffffffffffffffffffffffffffffffffffffffff16905081600b60006101000a81548173ffffffffffffffffffffffffffffffffffffffff021916908373ffffffffffffffffffffffffffffffffffffffff1602179055508173ffffffffffffffffffffffffffffffffffffffff168173ffffffffffffffffffffffffffffffffffffffff167f8be0079c531659141344cd1fd0a4f28419497f9722a3daafe3b4186f6b6457e060405160405180910390a35050565b828054620001d29062000274565b90600052602060002090601f016020900481019282620001f6576000855562000242565b82601f106200021157805160ff191683800117855562000242565b8280016001018555821562000242579182015b828111156200024157825182559160200191906001019062000224565b5b50905062000251919062000255565b5090565b5b808211156200027057600081600090555060010162000256565b5090565b600060028204905060018216806200028d57607f821691505b60208210811415620002a457620002a3620002aa565b5b50919050565b7f4e487b7100000000000000000000000000000000000000000000000000000000600052602260045260246000fd5b6143de80620002e96000396000f3fe608060405234801561001057600080fd5b506004361061014d5760003560e01c8063715018a6116100c3578063b88d4fde1161007c578063b88d4fde146103b0578063c87b56dd146103cc578063d204c45e146103fc578063d7aacb3e14610418578063e985e9c514610436578063f2fde38b146104665761014d565b8063715018a6146103025780638da5cb5b1461030c5780638e6807f81461032a57806395d89b41146103465780639ab055b314610364578063a22cb465146103945761014d565b806323b872dd1161011557806323b872dd1461020a5780632f745c591461022657806342842e0e146102565780634f6ccce7146102725780636352211e146102a257806370a08231146102d25761014d565b806301ffc9a71461015257806306fdde0314610182578063081812fc146101a0578063095ea7b3146101d057806318160ddd146101ec575b600080fd5b61016c60048036038101906101679190612f29565b610482565b604051610179919061357d565b60405180910390f35b61018a610494565b6040516101979190613598565b60405180910390f35b6101ba60048036038101906101b59190612f7b565b610526565b6040516101c79190613516565b60405180910390f35b6101ea60048036038101906101e59190612eed565b6105ab565b005b6101f46106c3565b604051610201919061389c565b60405180910390f35b610224600480360381019061021f9190612d93565b6106d0565b005b610240600480360381019061023b9190612eed565b610730565b60405161024d919061389c565b60405180910390f35b610270600480360381019061026b9190612d93565b6107d5565b005b61028c60048036038101906102879190612f7b565b6107f5565b604051610299919061389c565b60405180910390f35b6102bc60048036038101906102b79190612f7b565b61088c565b6040516102c99190613516565b60405180910390f35b6102ec60048036038101906102e79190612d05565b61093e565b6040516102f9919061389c565b60405180910390f35b61030a6109f6565b005b610314610a7e565b6040516103219190613516565b60405180910390f35b610344600480360381019061033f9190612f7b565b610aa8565b005b61034e610f6b565b60405161035b9190613598565b60405180910390f35b61037e60048036038101906103799190612f7b565b610ffd565b60405161038b919061389c565b60405180910390f35b6103ae60048036038101906103a99190612e5d565b61101a565b005b6103ca60048036038101906103c59190612de2565b611030565b005b6103e660048036038101906103e19190612f7b565b611092565b6040516103f39190613598565b60405180910390f35b61041660048036038101906104119190612e99565b6110a4565b005b6104206110d5565b60405161042d919061387a565b60405180910390f35b610450600480360381019061044b9190612d57565b61124d565b60405161045d919061357d565b60405180910390f35b610480600480360381019061047b9190612d05565b6112e1565b005b600061048d826113d9565b9050919050565b6060600080546104a390613b35565b80601f01602080910402602001604051908101604052809291908181526020018280546104cf90613b35565b801561051c5780601f106104f15761010080835404028352916020019161051c565b820191906000526020600020905b8154815290600101906020018083116104ff57829003601f168201915b5050505050905090565b600061053182611453565b610570576040517f08c379a00000000000000000000000000000000000000000000000000000000081526004016105679061379a565b60405180910390fd5b6004600083815260200190815260200160002060009054906101000a900473ffffffffffffffffffffffffffffffffffffffff169050919050565b60006105b68261088c565b90508073ffffffffffffffffffffffffffffffffffffffff168373ffffffffffffffffffffffffffffffffffffffff161415610627576040517f08c379a000000000000000000000000000000000000000000000000000000000815260040161061e9061381a565b60405180910390fd5b8073ffffffffffffffffffffffffffffffffffffffff166106466114bf565b73ffffffffffffffffffffffffffffffffffffffff16148061067557506106748161066f6114bf565b61124d565b5b6106b4576040517f08c379a00000000000000000000000000000000000000000000000000000000081526004016106ab906136da565b60405180910390fd5b6106be83836114c7565b505050565b6000600880549050905090565b6106e16106db6114bf565b82611580565b610720576040517f08c379a00000000000000000000000000000000000000000000000000000000081526004016107179061383a565b60405180910390fd5b61072b83838361165e565b505050565b600061073b8361093e565b821061077c576040517f08c379a0000000000000000000000000000000000000000000000000000000008152600401610773906135ba565b60405180910390fd5b600660008473ffffffffffffffffffffffffffffffffffffffff1673ffffffffffffffffffffffffffffffffffffffff168152602001908152602001600020600083815260200190815260200160002054905092915050565b6107f083838360405180602001604052806000815250611030565b505050565b60006107ff6106c3565b8210610840576040517f08c379a00000000000000000000000000000000000000000000000000000000081526004016108379061385a565b60405180910390fd5b6008828154811061087a577f4e487b7100000000000000000000000000000000000000000000000000000000600052603260045260246000fd5b90600052602060002001549050919050565b6000806002600084815260200190815260200160002060009054906101000a900473ffffffffffffffffffffffffffffffffffffffff169050600073ffffffffffffffffffffffffffffffffffffffff168173ffffffffffffffffffffffffffffffffffffffff161415610935576040517f08c379a000000000000000000000000000000000000000000000000000000000815260040161092c9061371a565b60405180910390fd5b80915050919050565b60008073ffffffffffffffffffffffffffffffffffffffff168273ffffffffffffffffffffffffffffffffffffffff1614156109af576040517f08c379a00000000000000000000000000000000000000000000000000000000081526004016109a6906136fa565b60405180910390fd5b600360008373ffffffffffffffffffffffffffffffffffffffff1673ffffffffffffffffffffffffffffffffffffffff168152602001908152602001600020549050919050565b6109fe6114bf565b73ffffffffffffffffffffffffffffffffffffffff16610a1c610a7e565b73ffffffffffffffffffffffffffffffffffffffff1614610a72576040517f08c379a0000000000000000000000000000000000000000000000000000000008152600401610a69906137ba565b60405180910390fd5b610a7c60006118c5565b565b6000600b60009054906101000a900473ffffffffffffffffffffffffffffffffffffffff16905090565b3373ffffffffffffffffffffffffffffffffffffffff163073ffffffffffffffffffffffffffffffffffffffff16636352211e836040518263ffffffff1660e01b8152600401610af8919061389c565b60206040518083038186803b158015610b1057600080fd5b505afa158015610b24573d6000803e3d6000fd5b505050506040513d601f19601f82011682018060405250810190610b489190612d2e565b73ffffffffffffffffffffffffffffffffffffffff1614610b9e576040517f08c379a0000000000000000000000000000000000000000000000000000000008152600401610b95906137fa565b60405180910390fd5b6001600c805490501115610e105760006001600c80549050610bc09190613a41565b90506000600c8281548110610bfe577f4e487b7100000000000000000000000000000000000000000000000000000000600052603260045260246000fd5b9060005260206000209060030201905060018160000180549050148015610cbe57503373ffffffffffffffffffffffffffffffffffffffff1681600001600081548110610c74577f4e487b7100000000000000000000000000000000000000000000000000000000600052603260045260246000fd5b906000526020600020906002020160000160009054906101000a900473ffffffffffffffffffffffffffffffffffffffff1673ffffffffffffffffffffffffffffffffffffffff16145b15610cfe576040517f08c379a0000000000000000000000000000000000000000000000000000000008152600401610cf59061369a565b60405180910390fd5b600181600001805490501415610e0d578060000160405180604001604052803373ffffffffffffffffffffffffffffffffffffffff16815260200185815250908060018154018082558091505060019003906000526020600020906002020160009091909190915060008201518160000160006101000a81548173ffffffffffffffffffffffffffffffffffffffff021916908373ffffffffffffffffffffffffffffffffffffffff16021790555060208201518160010155505081600d60003373ffffffffffffffffffffffffffffffffffffffff1673ffffffffffffffffffffffffffffffffffffffff16815260200190815260200160002081905550610e068261198b565b5050610f68565b50505b6000600c60018160018154018082558091505003906000526020600020906003020190508060000160405180604001604052803373ffffffffffffffffffffffffffffffffffffffff16815260200184815250908060018154018082558091505060019003906000526020600020906002020160009091909190915060008201518160000160006101000a81548173ffffffffffffffffffffffffffffffffffffffff021916908373ffffffffffffffffffffffffffffffffffffffff1602179055506020820151816001015550504281600101819055507fffffffffffffffffffffffffffffffffffffffffffffffffffffffffffffffff81600201819055506001600c80549050610f239190613a41565b600d60003373ffffffffffffffffffffffffffffffffffffffff1673ffffffffffffffffffffffffffffffffffffffff16815260200190815260200160002081905550505b50565b606060018054610f7a90613b35565b80601f0160208091040260200160405190810160405280929190818152602001828054610fa690613b35565b8015610ff35780601f10610fc857610100808354040283529160200191610ff3565b820191906000526020600020905b815481529060010190602001808311610fd657829003601f168201915b5050505050905090565b6000600e6000838152602001908152602001600020549050919050565b61102c6110256114bf565b8383611ad6565b5050565b61104161103b6114bf565b83611580565b611080576040517f08c379a00000000000000000000000000000000000000000000000000000000081526004016110779061383a565b60405180910390fd5b61108c84848484611c43565b50505050565b606061109d82611c9f565b9050919050565b60006110b0600f611df1565b90506110bc600f611dff565b6110c68382611e15565b6110d08183611e33565b505050565b6110dd612af3565b6000600d60003373ffffffffffffffffffffffffffffffffffffffff1673ffffffffffffffffffffffffffffffffffffffff168152602001908152602001600020549050600c818154811061115b577f4e487b7100000000000000000000000000000000000000000000000000000000600052603260045260246000fd5b906000526020600020906003020160405180606001604052908160008201805480602002602001604051908101604052809291908181526020016000905b8282101561122b57838290600052602060002090600202016040518060400160405290816000820160009054906101000a900473ffffffffffffffffffffffffffffffffffffffff1673ffffffffffffffffffffffffffffffffffffffff1673ffffffffffffffffffffffffffffffffffffffff16815260200160018201548152505081526020019060010190611199565b5050505081526020016001820154815260200160028201548152505091505090565b6000600560008473ffffffffffffffffffffffffffffffffffffffff1673ffffffffffffffffffffffffffffffffffffffff16815260200190815260200160002060008373ffffffffffffffffffffffffffffffffffffffff1673ffffffffffffffffffffffffffffffffffffffff16815260200190815260200160002060009054906101000a900460ff16905092915050565b6112e96114bf565b73ffffffffffffffffffffffffffffffffffffffff16611307610a7e565b73ffffffffffffffffffffffffffffffffffffffff161461135d576040517f08c379a0000000000000000000000000000000000000000000000000000000008152600401611354906137ba565b60405180910390fd5b600073ffffffffffffffffffffffffffffffffffffffff168173ffffffffffffffffffffffffffffffffffffffff1614156113cd576040517f08c379a00000000000000000000000000000000000000000000000000000000081526004016113c4906135fa565b60405180910390fd5b6113d6816118c5565b50565b60007f780e9d63000000000000000000000000000000000000000000000000000000007bffffffffffffffffffffffffffffffffffffffffffffffffffffffff1916827bffffffffffffffffffffffffffffffffffffffffffffffffffffffff1916148061144c575061144b82611ea7565b5b9050919050565b60008073ffffffffffffffffffffffffffffffffffffffff166002600084815260200190815260200160002060009054906101000a900473ffffffffffffffffffffffffffffffffffffffff1673ffffffffffffffffffffffffffffffffffffffff1614159050919050565b600033905090565b816004600083815260200190815260200160002060006101000a81548173ffffffffffffffffffffffffffffffffffffffff021916908373ffffffffffffffffffffffffffffffffffffffff160217905550808273ffffffffffffffffffffffffffffffffffffffff1661153a8361088c565b73ffffffffffffffffffffffffffffffffffffffff167f8c5be1e5ebec7d5bd14f71427d1e84f3dd0314c0f7b2291e5b200ac8c7c3b92560405160405180910390a45050565b600061158b82611453565b6115ca576040517f08c379a00000000000000000000000000000000000000000000000000000000081526004016115c1906136ba565b60405180910390fd5b60006115d58361088c565b90508073ffffffffffffffffffffffffffffffffffffffff168473ffffffffffffffffffffffffffffffffffffffff16148061164457508373ffffffffffffffffffffffffffffffffffffffff1661162c84610526565b73ffffffffffffffffffffffffffffffffffffffff16145b806116555750611654818561124d565b5b91505092915050565b8273ffffffffffffffffffffffffffffffffffffffff1661167e8261088c565b73ffffffffffffffffffffffffffffffffffffffff16146116d4576040517f08c379a00000000000000000000000000000000000000000000000000000000081526004016116cb9061361a565b60405180910390fd5b600073ffffffffffffffffffffffffffffffffffffffff168273ffffffffffffffffffffffffffffffffffffffff161415611744576040517f08c379a000000000000000000000000000000000000000000000000000000000815260040161173b9061365a565b60405180910390fd5b61174f838383611f89565b61175a6000826114c7565b6001600360008573ffffffffffffffffffffffffffffffffffffffff1673ffffffffffffffffffffffffffffffffffffffff16815260200190815260200160002060008282546117aa9190613a41565b925050819055506001600360008473ffffffffffffffffffffffffffffffffffffffff1673ffffffffffffffffffffffffffffffffffffffff168152602001908152602001600020600082825461180191906139ba565b92505081905550816002600083815260200190815260200160002060006101000a81548173ffffffffffffffffffffffffffffffffffffffff021916908373ffffffffffffffffffffffffffffffffffffffff160217905550808273ffffffffffffffffffffffffffffffffffffffff168473ffffffffffffffffffffffffffffffffffffffff167fddf252ad1be2c89b69c2b068fc378daa952ba7f163c4a11628f55a4df523b3ef60405160405180910390a46118c0838383611f99565b505050565b6000600b60009054906101000a900473ffffffffffffffffffffffffffffffffffffffff16905081600b60006101000a81548173ffffffffffffffffffffffffffffffffffffffff021916908373ffffffffffffffffffffffffffffffffffffffff1602179055508173ffffffffffffffffffffffffffffffffffffffff168173ffffffffffffffffffffffffffffffffffffffff167f8be0079c531659141344cd1fd0a4f28419497f9722a3daafe3b4186f6b6457e060405160405180910390a35050565b6000600242336040516020016119a29291906134ea565b6040516020818303038152906040528051906020012060001c6119c59190613c0f565b90506000600c8381548110611a03577f4e487b7100000000000000000000000000000000000000000000000000000000600052603260045260246000fd5b906000526020600020906003020190508181600201819055506000816000018381548110611a5a577f4e487b7100000000000000000000000000000000000000000000000000000000600052603260045260246000fd5b90600052602060002090600202016001015490506001600e60008381526020019081526020016000206000828254611a9291906139ba565b925050819055507f59d70e1b512825833c0d38f2b7ce12846777b4d3a962bcf6255661166701e5b484604051611ac8919061389c565b60405180910390a150505050565b8173ffffffffffffffffffffffffffffffffffffffff168373ffffffffffffffffffffffffffffffffffffffff161415611b45576040517f08c379a0000000000000000000000000000000000000000000000000000000008152600401611b3c9061367a565b60405180910390fd5b80600560008573ffffffffffffffffffffffffffffffffffffffff1673ffffffffffffffffffffffffffffffffffffffff16815260200190815260200160002060008473ffffffffffffffffffffffffffffffffffffffff1673ffffffffffffffffffffffffffffffffffffffff16815260200190815260200160002060006101000a81548160ff0219169083151502179055508173ffffffffffffffffffffffffffffffffffffffff168373ffffffffffffffffffffffffffffffffffffffff167f17307eab39ab6107e8899845ad3d59bd9653f200f220920489ca2b5937696c3183604051611c36919061357d565b60405180910390a3505050565b611c4e84848461165e565b611c5a84848484611f9e565b611c99576040517f08c379a0000000000000000000000000000000000000000000000000000000008152600401611c90906135da565b60405180910390fd5b50505050565b6060611caa82611453565b611ce9576040517f08c379a0000000000000000000000000000000000000000000000000000000008152600401611ce09061377a565b60405180910390fd5b6000600a60008481526020019081526020016000208054611d0990613b35565b80601f0160208091040260200160405190810160405280929190818152602001828054611d3590613b35565b8015611d825780601f10611d5757610100808354040283529160200191611d82565b820191906000526020600020905b815481529060010190602001808311611d6557829003601f168201915b505050505090506000611d93612135565b9050600081511415611da9578192505050611dec565b600082511115611dde578082604051602001611dc69291906134c6565b60405160208183030381529060405292505050611dec565b611de78461214c565b925050505b919050565b600081600001549050919050565b6001816000016000828254019250508190555050565b611e2f8282604051806020016040528060008152506121f3565b5050565b611e3c82611453565b611e7b576040517f08c379a0000000000000000000000000000000000000000000000000000000008152600401611e729061373a565b60405180910390fd5b80600a60008481526020019081526020016000209080519060200190611ea2929190612b14565b505050565b60007f80ac58cd000000000000000000000000000000000000000000000000000000007bffffffffffffffffffffffffffffffffffffffffffffffffffffffff1916827bffffffffffffffffffffffffffffffffffffffffffffffffffffffff19161480611f7257507f5b5e139f000000000000000000000000000000000000000000000000000000007bffffffffffffffffffffffffffffffffffffffffffffffffffffffff1916827bffffffffffffffffffffffffffffffffffffffffffffffffffffffff1916145b80611f825750611f818261224e565b5b9050919050565b611f948383836122b8565b505050565b505050565b6000611fbf8473ffffffffffffffffffffffffffffffffffffffff166123cc565b15612128578373ffffffffffffffffffffffffffffffffffffffff1663150b7a02611fe86114bf565b8786866040518563ffffffff1660e01b815260040161200a9493929190613531565b602060405180830381600087803b15801561202457600080fd5b505af192505050801561205557506040513d601f19601f820116820180604052508101906120529190612f52565b60015b6120d8573d8060008114612085576040519150601f19603f3d011682016040523d82523d6000602084013e61208a565b606091505b506000815114156120d0576040517f08c379a00000000000000000000000000000000000000000000000000000000081526004016120c7906135da565b60405180910390fd5b805181602001fd5b63150b7a0260e01b7bffffffffffffffffffffffffffffffffffffffffffffffffffffffff1916817bffffffffffffffffffffffffffffffffffffffffffffffffffffffff19161491505061212d565b600190505b949350505050565b606060405180602001604052806000815250905090565b606061215782611453565b612196576040517f08c379a000000000000000000000000000000000000000000000000000000000815260040161218d906137da565b60405180910390fd5b60006121a0612135565b905060008151116121c057604051806020016040528060008152506121eb565b806121ca846123ef565b6040516020016121db9291906134c6565b6040516020818303038152906040525b915050919050565b6121fd838361259c565b61220a6000848484611f9e565b612249576040517f08c379a0000000000000000000000000000000000000000000000000000000008152600401612240906135da565b60405180910390fd5b505050565b60007f01ffc9a7000000000000000000000000000000000000000000000000000000007bffffffffffffffffffffffffffffffffffffffffffffffffffffffff1916827bffffffffffffffffffffffffffffffffffffffffffffffffffffffff1916149050919050565b6122c3838383612776565b600073ffffffffffffffffffffffffffffffffffffffff168373ffffffffffffffffffffffffffffffffffffffff161415612306576123018161277b565b612345565b8173ffffffffffffffffffffffffffffffffffffffff168373ffffffffffffffffffffffffffffffffffffffff16146123445761234383826127c4565b5b5b600073ffffffffffffffffffffffffffffffffffffffff168273ffffffffffffffffffffffffffffffffffffffff1614156123885761238381612931565b6123c7565b8273ffffffffffffffffffffffffffffffffffffffff168273ffffffffffffffffffffffffffffffffffffffff16146123c6576123c58282612a74565b5b5b505050565b6000808273ffffffffffffffffffffffffffffffffffffffff163b119050919050565b60606000821415612437576040518060400160405280600181526020017f30000000000000000000000000000000000000000000000000000000000000008152509050612597565b600082905060005b6000821461246957808061245290613b98565b915050600a826124629190613a10565b915061243f565b60008167ffffffffffffffff8111156124ab577f4e487b7100000000000000000000000000000000000000000000000000000000600052604160045260246000fd5b6040519080825280601f01601f1916602001820160405280156124dd5781602001600182028036833780820191505090505b5090505b60008514612590576001826124f69190613a41565b9150600a856125059190613c0f565b603061251191906139ba565b60f81b81838151811061254d577f4e487b7100000000000000000000000000000000000000000000000000000000600052603260045260246000fd5b60200101907effffffffffffffffffffffffffffffffffffffffffffffffffffffffffffff1916908160001a905350600a856125899190613a10565b94506124e1565b8093505050505b919050565b600073ffffffffffffffffffffffffffffffffffffffff168273ffffffffffffffffffffffffffffffffffffffff16141561260c576040517f08c379a00000000000000000000000000000000000000000000000000000000081526004016126039061375a565b60405180910390fd5b61261581611453565b15612655576040517f08c379a000000000000000000000000000000000000000000000000000000000815260040161264c9061363a565b60405180910390fd5b61266160008383611f89565b6001600360008473ffffffffffffffffffffffffffffffffffffffff1673ffffffffffffffffffffffffffffffffffffffff16815260200190815260200160002060008282546126b191906139ba565b92505081905550816002600083815260200190815260200160002060006101000a81548173ffffffffffffffffffffffffffffffffffffffff021916908373ffffffffffffffffffffffffffffffffffffffff160217905550808273ffffffffffffffffffffffffffffffffffffffff16600073ffffffffffffffffffffffffffffffffffffffff167fddf252ad1be2c89b69c2b068fc378daa952ba7f163c4a11628f55a4df523b3ef60405160405180910390a461277260008383611f99565b5050565b505050565b6008805490506009600083815260200190815260200160002081905550600881908060018154018082558091505060019003906000526020600020016000909190919091505550565b600060016127d18461093e565b6127db9190613a41565b90506000600760008481526020019081526020016000205490508181146128c0576000600660008673ffffffffffffffffffffffffffffffffffffffff1673ffffffffffffffffffffffffffffffffffffffff168152602001908152602001600020600084815260200190815260200160002054905080600660008773ffffffffffffffffffffffffffffffffffffffff1673ffffffffffffffffffffffffffffffffffffffff168152602001908152602001600020600084815260200190815260200160002081905550816007600083815260200190815260200160002081905550505b6007600084815260200190815260200160002060009055600660008573ffffffffffffffffffffffffffffffffffffffff1673ffffffffffffffffffffffffffffffffffffffff16815260200190815260200160002060008381526020019081526020016000206000905550505050565b600060016008805490506129459190613a41565b905060006009600084815260200190815260200160002054905060006008838154811061299b577f4e487b7100000000000000000000000000000000000000000000000000000000600052603260045260246000fd5b9060005260206000200154905080600883815481106129e3577f4e487b7100000000000000000000000000000000000000000000000000000000600052603260045260246000fd5b906000526020600020018190555081600960008381526020019081526020016000208190555060096000858152602001908152602001600020600090556008805480612a58577f4e487b7100000000000000000000000000000000000000000000000000000000600052603160045260246000fd5b6001900381819060005260206000200160009055905550505050565b6000612a7f8361093e565b905081600660008573ffffffffffffffffffffffffffffffffffffffff1673ffffffffffffffffffffffffffffffffffffffff168152602001908152602001600020600083815260200190815260200160002081905550806007600084815260200190815260200160002081905550505050565b60405180606001604052806060815260200160008152602001600081525090565b828054612b2090613b35565b90600052602060002090601f016020900481019282612b425760008555612b89565b82601f10612b5b57805160ff1916838001178555612b89565b82800160010185558215612b89579182015b82811115612b88578251825591602001919060010190612b6d565b5b509050612b969190612b9a565b5090565b5b80821115612bb3576000816000905550600101612b9b565b5090565b6000612bca612bc5846138dc565b6138b7565b905082815260208101848484011115612be257600080fd5b612bed848285613af3565b509392505050565b6000612c08612c038461390d565b6138b7565b905082815260208101848484011115612c2057600080fd5b612c2b848285613af3565b509392505050565b600081359050612c428161434c565b92915050565b600081519050612c578161434c565b92915050565b600081359050612c6c81614363565b92915050565b600081359050612c818161437a565b92915050565b600081519050612c968161437a565b92915050565b600082601f830112612cad57600080fd5b8135612cbd848260208601612bb7565b91505092915050565b600082601f830112612cd757600080fd5b8135612ce7848260208601612bf5565b91505092915050565b600081359050612cff81614391565b92915050565b600060208284031215612d1757600080fd5b6000612d2584828501612c33565b91505092915050565b600060208284031215612d4057600080fd5b6000612d4e84828501612c48565b91505092915050565b60008060408385031215612d6a57600080fd5b6000612d7885828601612c33565b9250506020612d8985828601612c33565b9150509250929050565b600080600060608486031215612da857600080fd5b6000612db686828701612c33565b9350506020612dc786828701612c33565b9250506040612dd886828701612cf0565b9150509250925092565b60008060008060808587031215612df857600080fd5b6000612e0687828801612c33565b9450506020612e1787828801612c33565b9350506040612e2887828801612cf0565b925050606085013567ffffffffffffffff811115612e4557600080fd5b612e5187828801612c9c565b91505092959194509250565b60008060408385031215612e7057600080fd5b6000612e7e85828601612c33565b9250506020612e8f85828601612c5d565b9150509250929050565b60008060408385031215612eac57600080fd5b6000612eba85828601612c33565b925050602083013567ffffffffffffffff811115612ed757600080fd5b612ee385828601612cc6565b9150509250929050565b60008060408385031215612f0057600080fd5b6000612f0e85828601612c33565b9250506020612f1f85828601612cf0565b9150509250929050565b600060208284031215612f3b57600080fd5b6000612f4984828501612c72565b91505092915050565b600060208284031215612f6457600080fd5b6000612f7284828501612c87565b91505092915050565b600060208284031215612f8d57600080fd5b6000612f9b84828501612cf0565b91505092915050565b6000612fb08383613462565b60408301905092915050565b612fc581613a75565b82525050565b612fd481613a75565b82525050565b612feb612fe682613a75565b613be1565b82525050565b6000612ffc8261394e565b613006818561397c565b93506130118361393e565b8060005b838110156130425781516130298882612fa4565b97506130348361396f565b925050600181019050613015565b5085935050505092915050565b61305881613a87565b82525050565b600061306982613959565b613073818561398d565b9350613083818560208601613b02565b61308c81613cfc565b840191505092915050565b6130a081613abf565b82525050565b60006130b182613964565b6130bb818561399e565b93506130cb818560208601613b02565b6130d481613cfc565b840191505092915050565b60006130ea82613964565b6130f481856139af565b9350613104818560208601613b02565b80840191505092915050565b600061311d602b8361399e565b915061312882613d1a565b604082019050919050565b600061314060328361399e565b915061314b82613d69565b604082019050919050565b600061316360268361399e565b915061316e82613db8565b604082019050919050565b600061318660258361399e565b915061319182613e07565b604082019050919050565b60006131a9601c8361399e565b91506131b482613e56565b602082019050919050565b60006131cc60248361399e565b91506131d782613e7f565b604082019050919050565b60006131ef60198361399e565b91506131fa82613ece565b602082019050919050565b600061321260348361399e565b915061321d82613ef7565b604082019050919050565b6000613235602c8361399e565b915061324082613f46565b604082019050919050565b600061325860388361399e565b915061326382613f95565b604082019050919050565b600061327b602a8361399e565b915061328682613fe4565b604082019050919050565b600061329e60298361399e565b91506132a982614033565b604082019050919050565b60006132c1602e8361399e565b91506132cc82614082565b604082019050919050565b60006132e460208361399e565b91506132ef826140d1565b602082019050919050565b600061330760318361399e565b9150613312826140fa565b604082019050919050565b600061332a602c8361399e565b915061333582614149565b604082019050919050565b600061334d60208361399e565b915061335882614198565b602082019050919050565b6000613370602f8361399e565b915061337b826141c1565b604082019050919050565b6000613393602f8361399e565b915061339e82614210565b604082019050919050565b60006133b660218361399e565b91506133c18261425f565b604082019050919050565b60006133d960318361399e565b91506133e4826142ae565b604082019050919050565b60006133fc602c8361399e565b9150613407826142fd565b604082019050919050565b6000606083016000830151848203600086015261342f8282612ff1565b91505060208301516134446020860182613491565b5060408301516134576040860182613097565b508091505092915050565b6040820160008201516134786000850182612fbc565b50602082015161348b6020850182613491565b50505050565b61349a81613ae9565b82525050565b6134a981613ae9565b82525050565b6134c06134bb82613ae9565b613c05565b82525050565b60006134d282856130df565b91506134de82846130df565b91508190509392505050565b60006134f682856134af565b6020820191506135068284612fda565b6014820191508190509392505050565b600060208201905061352b6000830184612fcb565b92915050565b60006080820190506135466000830187612fcb565b6135536020830186612fcb565b61356060408301856134a0565b8181036060830152613572818461305e565b905095945050505050565b6000602082019050613592600083018461304f565b92915050565b600060208201905081810360008301526135b281846130a6565b905092915050565b600060208201905081810360008301526135d381613110565b9050919050565b600060208201905081810360008301526135f381613133565b9050919050565b6000602082019050818103600083015261361381613156565b9050919050565b6000602082019050818103600083015261363381613179565b9050919050565b600060208201905081810360008301526136538161319c565b9050919050565b60006020820190508181036000830152613673816131bf565b9050919050565b60006020820190508181036000830152613693816131e2565b9050919050565b600060208201905081810360008301526136b381613205565b9050919050565b600060208201905081810360008301526136d381613228565b9050919050565b600060208201905081810360008301526136f38161324b565b9050919050565b600060208201905081810360008301526137138161326e565b9050919050565b6000602082019050818103600083015261373381613291565b9050919050565b60006020820190508181036000830152613753816132b4565b9050919050565b60006020820190508181036000830152613773816132d7565b9050919050565b60006020820190508181036000830152613793816132fa565b9050919050565b600060208201905081810360008301526137b38161331d565b9050919050565b600060208201905081810360008301526137d381613340565b9050919050565b600060208201905081810360008301526137f381613363565b9050919050565b6000602082019050818103600083015261381381613386565b9050919050565b60006020820190508181036000830152613833816133a9565b9050919050565b60006020820190508181036000830152613853816133cc565b9050919050565b60006020820190508181036000830152613873816133ef565b9050919050565b600060208201905081810360008301526138948184613412565b905092915050565b60006020820190506138b160008301846134a0565b92915050565b60006138c16138d2565b90506138cd8282613b67565b919050565b6000604051905090565b600067ffffffffffffffff8211156138f7576138f6613ccd565b5b61390082613cfc565b9050602081019050919050565b600067ffffffffffffffff82111561392857613927613ccd565b5b61393182613cfc565b9050602081019050919050565b6000819050602082019050919050565b600081519050919050565b600081519050919050565b600081519050919050565b6000602082019050919050565b600082825260208201905092915050565b600082825260208201905092915050565b600082825260208201905092915050565b600081905092915050565b60006139c582613ae9565b91506139d083613ae9565b9250827fffffffffffffffffffffffffffffffffffffffffffffffffffffffffffffffff03821115613a0557613a04613c40565b5b828201905092915050565b6000613a1b82613ae9565b9150613a2683613ae9565b925082613a3657613a35613c6f565b5b828204905092915050565b6000613a4c82613ae9565b9150613a5783613ae9565b925082821015613a6a57613a69613c40565b5b828203905092915050565b6000613a8082613ac9565b9050919050565b60008115159050919050565b60007fffffffff0000000000000000000000000000000000000000000000000000000082169050919050565b6000819050919050565b600073ffffffffffffffffffffffffffffffffffffffff82169050919050565b6000819050919050565b82818337600083830152505050565b60005b83811015613b20578082015181840152602081019050613b05565b83811115613b2f576000848401525b50505050565b60006002820490506001821680613b4d57607f821691505b60208210811415613b6157613b60613c9e565b5b50919050565b613b7082613cfc565b810181811067ffffffffffffffff82111715613b8f57613b8e613ccd565b5b80604052505050565b6000613ba382613ae9565b91507fffffffffffffffffffffffffffffffffffffffffffffffffffffffffffffffff821415613bd657613bd5613c40565b5b600182019050919050565b6000613bec82613bf3565b9050919050565b6000613bfe82613d0d565b9050919050565b6000819050919050565b6000613c1a82613ae9565b9150613c2583613ae9565b925082613c3557613c34613c6f565b5b828206905092915050565b7f4e487b7100000000000000000000000000000000000000000000000000000000600052601160045260246000fd5b7f4e487b7100000000000000000000000000000000000000000000000000000000600052601260045260246000fd5b7f4e487b7100000000000000000000000000000000000000000000000000000000600052602260045260246000fd5b7f4e487b7100000000000000000000000000000000000000000000000000000000600052604160045260246000fd5b6000601f19601f8301169050919050565b60008160601b9050919050565b7f455243373231456e756d657261626c653a206f776e657220696e646578206f7560008201527f74206f6620626f756e6473000000000000000000000000000000000000000000602082015250565b7f4552433732313a207472616e7366657220746f206e6f6e20455243373231526560008201527f63656976657220696d706c656d656e7465720000000000000000000000000000602082015250565b7f4f776e61626c653a206e6577206f776e657220697320746865207a65726f206160008201527f6464726573730000000000000000000000000000000000000000000000000000602082015250565b7f4552433732313a207472616e736665722066726f6d20696e636f72726563742060008201527f6f776e6572000000000000000000000000000000000000000000000000000000602082015250565b7f4552433732313a20746f6b656e20616c7265616479206d696e74656400000000600082015250565b7f4552433732313a207472616e7366657220746f20746865207a65726f2061646460008201527f7265737300000000000000000000000000000000000000000000000000000000602082015250565b7f4552433732313a20617070726f766520746f2063616c6c657200000000000000600082015250565b7f4172656e613a2043616e6e6f7420737461727420616e6f74686572206261747460008201527f6c65207768696c6520696e206120626174746c65000000000000000000000000602082015250565b7f4552433732313a206f70657261746f7220717565727920666f72206e6f6e657860008201527f697374656e7420746f6b656e0000000000000000000000000000000000000000602082015250565b7f4552433732313a20617070726f76652063616c6c6572206973206e6f74206f7760008201527f6e6572206e6f7220617070726f76656420666f7220616c6c0000000000000000602082015250565b7f4552433732313a2062616c616e636520717565727920666f7220746865207a6560008201527f726f206164647265737300000000000000000000000000000000000000000000602082015250565b7f4552433732313a206f776e657220717565727920666f72206e6f6e657869737460008201527f656e7420746f6b656e0000000000000000000000000000000000000000000000602082015250565b7f45524337323155524953746f726167653a2055524920736574206f66206e6f6e60008201527f6578697374656e7420746f6b656e000000000000000000000000000000000000602082015250565b7f4552433732313a206d696e7420746f20746865207a65726f2061646472657373600082015250565b7f45524337323155524953746f726167653a2055524920717565727920666f722060008201527f6e6f6e6578697374656e7420746f6b656e000000000000000000000000000000602082015250565b7f4552433732313a20617070726f76656420717565727920666f72206e6f6e657860008201527f697374656e7420746f6b656e0000000000000000000000000000000000000000602082015250565b7f4f776e61626c653a2063616c6c6572206973206e6f7420746865206f776e6572600082015250565b7f4552433732314d657461646174613a2055524920717565727920666f72206e6f60008201527f6e6578697374656e7420746f6b656e0000000000000000000000000000000000602082015250565b7f4172656e613a2043616e6e6f7420737461727420626174746c6520776974682060008201527f6e6f6e2d6f776e656420746f6b656e0000000000000000000000000000000000602082015250565b7f4552433732313a20617070726f76616c20746f2063757272656e74206f776e6560008201527f7200000000000000000000000000000000000000000000000000000000000000602082015250565b7f4552433732313a207472616e736665722063616c6c6572206973206e6f74206f60008201527f776e6572206e6f7220617070726f766564000000000000000000000000000000602082015250565b7f455243373231456e756d657261626c653a20676c6f62616c20696e646578206f60008201527f7574206f6620626f756e64730000000000000000000000000000000000000000602082015250565b61435581613a75565b811461436057600080fd5b50565b61436c81613a87565b811461437757600080fd5b50565b61438381613a93565b811461438e57600080fd5b50565b61439a81613ae9565b81146143a557600080fd5b5056fea264697066735822122041053640269a4cd93c69da675af521870761923fbe1a0724c62b397101621d5664736f6c63430008040033",
  "linkReferences": {},
  "deployedLinkReferences": {}
}